:020000040800F2
:100000005805002081010008B5080008AD08000867
:10001000B1080008AB070008F5090008000000005F
:10002000000000000000000000000000E3080008DD
:10003000AF07000800000000E1080008E50800081C
:100040009B0100089B0100089B0100089B01000820
:100050009B010008B10700089B010008B5070008D4
:100060009B0100089B0100089B0100089B01000800
:100070009B0100089B0100089B0100089B010008F0
:100080009B0100089B010008000000009B01000884
:100090009B0100089B0100089B0100089B010008D0
:1000A0009B0100089B0100089B0100089B010008C0
:1000B0009B010008000000009B01000800000000F8
:1000C0009B010008000000009B0100089B01000844
:1000D0009B0100089B0100089B0100080000000034
:1000E00000000000000000009B0100089B010008C8
:1000F0009B0100089B0100089B0100089B01000870
:100100009B01000800000000000000009B010008A7
:1001100000000000000000000000000000000000DF
:1001200000000000000000000000000000000000CF
:1001300000000000000000000000000000000000BF
:1001400000000000000000000000000000000000AF
:1001500000000000000000009B0100089B01000857
:100160009B0100089B010008DFF810D000F0D0FAD6
:1001700000480047F9160008AFF30080580500203A
:100180000648804706480047FEE7FEE7FEE7FEE731
:10019000FEE7FEE7FEE7FEE7FEE7FEE7650900088B
:1001A00069010008F0B480EA0102D40F4200B2EB0A
:1001B000410F02D20246084611464A0042D0C30D02
:1001C000DDB2C1F3C752AD1A202D35DAC1F31601E5
:1001D00041F4000204B15242C5F1200602FA06F1D0
:1001E0002A411044B3EBD05F23D0C4B1012DA0EB62
:1001F000C35009DCF0BC4FF0004202EAC352DBB24C
:1002000000F5000000F0F9B9400000F1807000EB4B
:10021000C350A0F1807040EAD170490009E049085C
:1002200041EAC071A0EBC35000F50000400800EBAC
:10023000C350F0BC00F0D8B96142012202EB410189
:10024000001BF6E7F0BC704781F00041AAE780F0A0
:100250000040A7E780EA010210B502F00043400029
:1002600022D04A001FD0010E01EB1261C0F35600EC
:10027000C2F3560240F4000042F40002A0FB022048
:1002800000047F39140400D0401C50EA124001D40D
:100290004000491EC2B20C0604EBD010401C4008BE
:1002A000802A02D003E0002010BD20F001000029C8
:1002B00000DA0020184310BD2DE9FE4F804681EA88
:1002C0000300C00F0C46009021F0004123F00045D0
:1002D000B8EB0200A94105D24046214690461C4693
:1002E0000B46024623F00040104347D0270DC7F3CA
:1002F0000A00C3F30A510290401A019040286BDAB9
:10030000C3F3130040F4801B0098924620B10023F1
:10031000D2EB030A63EB0B0B01985946C0F1400284
:10032000504600F040F906460D4650465946019A9F
:1003300000F048F910EB08006141002487EA1152EF
:1003400084EAE7731A4340D0009A62B3019A012A03
:100350004FEA075215DC001B61EB02014FF000422F
:1003600002EA0752CDE90042001C41F580113246F5
:100370002B4600F07FF903B0BDE8F08F40462146E0
:10038000F9E7001B61EB0201001C41F58013001826
:100390005B412018A2F5001747EB030140EAD57036
:1003A000B6196D4111E06D084FEA360645EAC07591
:1003B0004FEA0752001B61EB0201001C41F580115E
:1003C00049084FEA30000019514132462B4603B02C
:1003D000BDE8F04F00F03FB9009801224000002333
:1003E000D0EB020263EBE073009821464FEAE07421
:1003F000B8EB000061EB0401E9E783F000435BE741
:1004000081F0004158E72DE9FE4F81EA030404F032
:10041000004421F0004100944FF0000B23F0004312
:1004200050EA01045ED052EA03045BD0C3F30A54DD
:10043000C1F30A552C44A4F2F3340194A0FB0254F6
:10044000C1F3130141F48011C3F3130343F4801388
:1004500001FB024400FB034E840A970A44EA8154DC
:1004600047EA8357A4FB076802958D0A05FB0785B9
:100470004FEA932C04FB0C542705029D4FEA0658C3
:1004800047EA1637B5EB08056EEB070C870E920EA0
:1004900047EA811742EA8312A7FB0201B6EB0B0180
:1004A00064EB00042B0D43EA0C335E1844EB1C5044
:1004B000DA465146E7FB0201C5F313044FEA0B335A
:1004C00043EA14534FEA0432019C43EA0603A4F1C1
:1004D0000C040294009CCDE900B400F0CBF803B00A
:1004E000BDE8F08F00200146F9E7C10F80EAE07017
:1004F0000844CA079623002100F07FB89623002203
:10050000114600F07AB80EB540F233410291002155
:10051000CDE900110A460B4600F0ACF803B000BD6F
:1005200020F00040C10DC0F3160040F400007F2908
:1005300001DA00207047962903DCC1F19601C8401A
:10054000704796398840704700F0004230F0004014
:100550000AD0C10D01F56071C0F3160042EA0151E5
:10056000C20840071143704700200146704701F060
:10057000004330B421F0004150EA010206D00A0DD8
:10058000A2F56072C1F31301002A02DC30BC002026
:100590007047440F44EAC104C100E01830BC00EBCE
:1005A000C25000F021B8202A04DB203A00FA02F100
:1005B000002070479140C2F1200320FA03F3194351
:1005C00090407047202A06DBCB17203A41FA02F010
:1005D00043EAE07306E041FA02F3D040C2F12002A0
:1005E00091400843194670470029A8BF7047401C36
:1005F000490008BF20F00100704710B4B0FA80FC39
:1006000000FA0CF050EA010404BF10BC704749B175
:10061000CCF1200421FA04F411FA0CF118BF0121E5
:1006200021430843A3EB0C01CB1D4FEA00614FEAC5
:10063000102042BF002010BC704700EBC350104494
:100640000029A4BF10BC7047401C490008BF20F01F
:10065000010010BC704710B5141E73F1000408DAD5
:10066000401C41F1000192185B411A4301D120F076
:10067000010010BD2DE9F04D92469B4611B1B1FA33
:1006800081F202E0B0FA80F220329046FFF78BFF51
:1006900004460F4640EA0A0041EA0B0153465A4617
:1006A000084313D0114653EA010019D0C8F14002A3
:1006B000504600F03FF805460E4650465946424621
:1006C000FFF771FF084305D0012004E020463946BA
:1006D000BDE8F08D0020054346EAE0762C43374321
:1006E0000A986305E40AA0EB08000022FD0A44EA28
:1006F00047540A3002D500200146E9E701051019E8
:100700006941DDE9084500196941BDE8F04DA2E7FE
:10071000064C074D06E0E06840F0010394E807004E
:1007200098471034AC42F6D3FFF722FD6426000848
:1007300084260008202A04DB203A21FA02F0002156
:10074000704721FA02F3D040C2F1200291400843E1
:100750001946704770B58C1810F8015B15F0070347
:1007600001D110F8013B2A1106D110F8012B03E04A
:1007700010F8016B01F8016B5B1EF9D12B0705D452
:100780000023521E0DD401F8013BFAE710F8013B9B
:10079000CB1A921C03E013F8015B01F8015B521EB7
:1007A000F9D5A142D8D3002070BD00BFFEE7704745
:1007B0007047000010B5102000F04AFD012804D158
:1007C00038490871102000F03DFD802000F040FD08
:1007D000012819D180214FF0904000F081FE98B996
:1007E0003048408980B900202E49087202212E48E5
:1007F00000F076FE10B101202A4908720120294933
:100800004881802000F01EFD802000F021FD01289D
:1008100047D180214FF0904000F062FE012840D186
:100820002048408901283CD102211F4800F058FE91
:10083000B0B91C48007A012812D110214FF0904025
:1008400000F04EFE48B91748407B012805D103202F
:10085000144988730120087302E00120114988734C
:100860000221114800F03CFEA8B10E48007A90B970
:1008700010214FF0904000F033FE48B90948407B0A
:10088000012805D10420074988730120087302E07C
:10089000022004498873002002494881802000F02A
:1008A000D1FC10BD380100200004004800BFFEE765
:1008B00000BFFEE77047000010B5002807DA0A07FE
:1008C000140E054A00F00F031B1FD45403E00A075F
:1008D000130E024A135410BD18ED00E000E400E0CE
:1008E0007047704710B500F00DF91B4800790128DA
:1008F00004D119480068401C174908601648807BDD
:10090000062804D11448C088401C1349C8801348E5
:100910000068401C1149086008460068B0F57A6F0D
:1009200003D801200E49086015E00C480068B0F5B6
:100930007A6F08D909480068B0F5FA5F03D202203F
:100940000749086007E005480068B0F5FA5F02D97A
:1009500000200249086010BD380100200800002076
:100960000C00002010B51F48006840F001001D4930
:10097000086000BF1B48006800F002000028F9D0A2
:1009800018484068184908401649486008464068B9
:1009900016490840134948600846406820F4400062
:1009A000486008460068124908400E490860084639
:1009B000C06A20F00F00C8620846006B40F2431185
:1009C0008843084908630846406B20F001004863EB
:1009D0000020886001F0EAF900214FF0006000F08B
:1009E000B5FF10BD001002400C00FF08FFFFC0F76C
:1009F000FFFFF2FE00BFFEE7014A024900F013B814
:100A0000751200083401002002E008C8121F08C156
:100A1000002AFAD170477047002001E001C1121F7F
:100A2000002AFBD170472DE9F04116460F460446D7
:100A3000002503E03946B047641C6D1C207800286F
:100A4000F8D12846BDE8F0812DE9F04F85B0044685
:100A500089460020049009F00F0B200100EB2910BB
:100A600000F0FF0A5046FFF740FD0490082C09DD16
:100A70006FEA0A00401C00F0FF0ACAF10000FFF70D
:100A800034FD04905846FFF73EFD00220B4BCDE9A4
:100A90000001FFF7B8FC074688460498FFF754FDAD
:100AA0003A464346CDE90201FFF706FC0546FFF74B
:100AB0005EFD0490049805B0BDE8F08F0000B03FE3
:100AC00010B50446204600F077FC10BD10B5044672
:100AD0000B4801F010FA0AE000BF0121084801F0BC
:100AE00012FA0028F9D00121054801F009FA201E68
:100AF000A4F101018CB2EFD1014801F0F7F910BD6A
:100B0000002000400448006820B103480068401EEF
:100B100001490860704700001000002010B504462D
:100B200003E04FF47A70FFF7D1FF201EA4F101011A
:100B30008CB2F6D110BD10B5044640F2115001F050
:100B400063F83CB90223002211464FF0904000F0B8
:100B5000CFFC08E0012C06D10223002201214FF036
:100B6000904000F0C5FC0223032201214FF0904089
:100B700000F0E5FC02204FF09041886210BD10B5F6
:100B800040F2115001F040F840F2115001F03CF8F1
:100B90000123002219464FF0904000F0A9FC2023C9
:100BA000002201214FF0904000F0A2FC012303221B
:100BB00019464FF0904000F0C2FC2023032201218F
:100BC0004FF0904000F0BBFC01204FF09041886254
:100BD0002020886210BD000010B500218E2000F09A
:100BE000B7F8002407E0074A115D074A105D00F0DE
:100BF000AFF8601CC4B2072CF5DB80218E2000F01A
:100C0000A7F810BD27000020200000202DE9F041AA
:100C10000546002220214FF0904000F05CFC0120AE
:100C2000FFF754FF002201214FF0904000F053FCE9
:100C30000120FFF74BFF012220214FF0904000F0F0
:100C40004AFC0120FFF742FF0120FFF774FF002458
:100C50001BE005F0010202214FF0904000F03BFC48
:100C60006D10012211464FF0904000F034FC01203D
:100C7000FFF72CFF002201214FF0904000F02BFCE9
:100C80000120FFF723FF601CC4B2082CE1DB012028
:100C9000FFF71CFF0020FFF74EFF00241DE002219C
:100CA0004FF0904000F01CFC0746701040EAC7105F
:100CB000C6B2012211464FF0904000F00CFC01201A
:100CC000FFF704FF002201214FF0904000F003FCE9
:100CD0000120FFF7FBFE601CC4B2082CDFDB002202
:100CE00020214FF0904000F0F6FB0120FFF7EEFED0
:100CF000012211464FF0904000F0EDFB0120FFF77C
:100D0000E5FE002202214FF0904000F0E4FB0120BC
:100D1000FFF7DCFE012202214FF0904000F0DBFBE8
:100D20000120FFF7D3FE3046BDE8F08110B5002466
:100D300007E00549085DFFF769FF04490855601C95
:100D4000C4B2072CF5DB10BD1900002027000020DD
:100D500070B505460E46002220214FF0904000F06D
:100D6000BAFB0120FFF7B2FE002201214FF09040B4
:100D700000F0B1FB0120FFF7A9FE012220214FF076
:100D8000904000F0A8FB0120FFF7A0FE0120FFF734
:100D9000D2FE00241BE005F0010202214FF090403A
:100DA00000F099FB6D10012211464FF0904000F0C9
:100DB00092FB0120FFF78AFE002201214FF09040B4
:100DC00000F089FB0120FFF781FE601CC4B2082CF3
:100DD000E1DB00241BE006F0010202214FF090400D
:100DE00000F079FB7610012211464FF0904000F0A0
:100DF00072FB0120FFF76AFE002201214FF09040B4
:100E000000F069FB0120FFF761FE601CC4B2082CF2
:100E1000E1DB002220214FF0904000F05CFB01203C
:100E2000FFF754FE70BD10B5022000F04CF8002210
:100E300040214FF0904000F04EFB4FF41670FFF74A
:100E400045FE012240214FF0904000F044FB1E205F
:100E5000FFF73CFE012000F036F840214FF09040B3
:100E600000F03EFB04464FF4FA70FFF72FFE2046D9
:100E700010BD70B50446FFF7D6FFCC2000F074F823
:100E8000442000F071F84FF44870FFF747FEFFF779
:100E9000CAFFCC2000F068F8BE2000F065F800F032
:100EA00037F8054600F034F8064629463046FFF785
:100EB000CBFD2060206870BD0A21C171282181719D
:100EC00064210181704710B5044640F2115000F0D2
:100ED0009BFE012C07D14023002211464FF0904089
:100EE00000F006FB08E0022C06D14023002201217D
:100EF0004FF0904000F0FCFA4023032201214FF014
:100F0000904000F01CFB40204FF09041886210BDE3
:100F100070B50024082523E00220FFF7D4FF00224B
:100F200040214FF0904000F0D6FA0220FFF7CEFDAE
:100F3000012240214FF0904000F0CDFA0F20FFF742
:100F4000C5FD641040214FF0904000F0C9FA01281F
:100F500001D144F080043220FFF7B8FD681EC5B20D
:100F6000002DD9DC204670BD70B50446082527E069
:100F70000220FFF7A8FF002240214FF0904000F030
:100F8000AAFA0220FFF7A2FD04F0010030B101220D
:100F900040214FF0904000F09EFA05E000224021F1
:100FA0004FF0904000F097FA4620FFF78FFD0122A6
:100FB00040214FF0904000F08EFA6410681EC5B2D8
:100FC000002DD5DC70BD000010B5044640F2115074
:100FD00000F01AFE40F2125000F016FE40F21150DE
:100FE00000F012FE4FF4C06000F00EFE80230022DD
:100FF00011464FF0904000F07BFA02230022114688
:10100000174800F075FA1023002211464FF0904067
:1010100000F06EFA012C21D101221146072000F0C8
:1010200035FC01221146072000F030FC072100208A
:1010300000F01AFE0421002000F016FE022200211A
:10104000802000F0A1F8802000F0FCF801220021AF
:10105000102000F099F8102000F0F4F810BD000006
:101060000004004810B54748007901280FD14548D1
:1010700000680A280BD94348407940B910214FF045
:10108000904000F02DFA10B901203E4948713D48CA
:101090004079012812D13B480068B0F5FA7F0DD99C
:1010A00038480068B0F57A7F08D210214FF09040A0
:1010B00000F016FA10B901203249487331484079DE
:1010C00001280DD12F480068B0F57A7F08D92D4846
:1010D000007B012804D006202A4988730020487329
:1010E00028484079012813D126480068B0F5FA7FD6
:1010F0000ED910214FF0904000F0F2F9012807D1ED
:10110000002020494871086008714873087388738B
:101110001C484079012810D110214FF0904000F078
:10112000DFF9012809D117480068B0F5FA7F04D229
:1011300002201449487100200860124800790128F3
:101140001CD110484079022818D10E480068642844
:1011500014D910214FF0904000F0C2F938B907209F
:1011600008498873002008600871487106E005206E
:101170000449887300200860087148710148847B25
:10118000204610BD3801002010B52D4B1B6883434D
:101190002B4C2360231D1B688343241D2360231DC8
:1011A0001B688343241D2360231D1B688343241D68
:1011B000236011B101290ED105E0214B1B680343C7
:1011C0001F4C236008E01E4B1B1D1B6803431C4C77
:1011D000241D236000E000BF00BF32B1012A11D0FE
:1011E000022A1CD0032A27D127E0154B08331B689D
:1011F0000343134C08342360231D1B688343241DC1
:1012000023601BE00E4B08331B6883430C4C0834EF
:101210002360231D1B680343241D23600EE0084B3D
:1012200008331B680343064C08342360231D1B68E6
:101230000343241D236001E000BF00BF00BF10BDB9
:101240000004014001490860704700001404014097
:1012500001460748006800EA0102054814380068A2
:1012600000EA010312B10BB1012070470020FCE736
:101270001404014070B504460D46E1B2064801F081
:101280007BF900BF40F20771034801F09EF9002886
:10129000F8D0204670BD00000044004010B500208A
:1012A00001F048F810BD000010B527E0FFF7DAFEA6
:1012B0000446012C04D0022C0BD0052C16D111E0D1
:1012C00011480068401C1049086000200F498873CD
:1012D0000DE00D480068401E0B49086000200B49D6
:1012E000887304E000200949887308E000BF00BF4C
:1012F0000549098888B200F089FF00BFD6E70120C0
:101300000349087010BD000038000020380100209B
:101310003C00002010B5012001F00CF810BD704712
:1013200010B5022001F006F810BD704710B503207B
:1013300001F000F810BD704710B5042000F0FAFF6E
:1013400010BD000070B504242BE0FFF78BFE0546AE
:10135000012D04D0022D0ED0052D1CD117E0082C34
:1013600005DA601CC4B204F18700104948700020FF
:101370000F49887310E0012C05DD601EC4B204F132
:1013800087000A49487000200949887304E000205A
:101390000749887306E000BF00BF204600F036FF13
:1013A00000BFD2E701200349087070BD140000207F
:1013B000380100203C00002070B5054600242A4872
:1013C000854200D100BF40F2115000F01DFC2749BA
:1013D00031F8140000F018FC254850F824200121B1
:1013E0004FF0904000F048F8224850F824200121A6
:1013F0004FF0904000F040F81D4850F82430012292
:1014000002214FF0904000F073F8194850F8243052
:10141000012200214FF0904000F091F8154850F85B
:101420002430012202214FF0904000F061F8114871
:1014300050F82430012200214FF0904000F07FF856
:10144000284601F09DF84FF4E131284601F056F8A6
:101450000821284601F0D0F80421284601F0C4F8FC
:10146000284601F0ADF870BD00440040E8000020BF
:10147000EC000020F0000020F0B503461C6A5D6A15
:1014800000200DE00126864016403EB187000F2661
:10149000BE40B443860001FA06F63443461CB0B29F
:1014A0000828EFD3082011E00126864016405EB1DF
:1014B000A0F10806B7000F26BE40B543A0F108060C
:1014C000B60001FA06F63543461CB0B21028EBD33D
:1014D0001C625D62F0BD0AB1816100E0816270470B
:1014E00002461069084008B1012070470020FCE75F
:1014F000F0B504460D4616462168E268002019E062
:10150000012787401F409FB14FEA400C032707FA8D
:101510000CF7B943470005FA07F739434FEA400C87
:10152000032707FA0CF7BA43470006FA07F73A43CE
:10153000471CB8B21028E3D32160E260F0BDF0B5DB
:101540000C461546012C03D146681E43466002E056
:1015500046689E434660826800210DE001268E4069
:101560001E403EB14F000326BE40B2434E0005FA76
:1015700006F632434E1CB1B21029EFD38260F0BDA3
:1015800010B500224FF400714FF09040FFF7A3FF19
:101590000520FFF79BFA00BF00F01FFD0028FBD1DC
:1015A000012251024FF09040FFF795FF0220FFF714
:1015B0008DFA00224FF400714FF09040FFF78BFF3F
:1015C00010BD10B5012251024FF09040FFF783FF8C
:1015D0004FF48063002201214FF09040FFF788FF15
:1015E000012291024FF09040FFF775FF0220FFF7B4
:1015F0006DFA4FF48063002201214FF09040FFF715
:1016000077FF00224FF480614FF09040FFF763FFB7
:1016100010BD10B500224FF400714FF09040FFF75D
:101620005AFF0220FFF752FA4FF480630022012193
:101630004FF09040FFF75CFF00224FF480614FF0C5
:101640009040FFF748FF0220FFF740FA01225102C5
:101650004FF09040FFF73FFF0220FFF737FA4FF4BB
:101660008063002201214FF09040FFF741FF0122EB
:1016700091024FF09040FFF72EFF10BD70B5044669
:10168000002536E000224FF400714FF09040FFF744
:1016900022FF04F0010070B14FF4806300220121A9
:1016A0004FF09040FFF724FF012291024FF090404D
:1016B000FFF711FF0EE04FF48063002201214FF08D
:1016C0009040FFF715FF00224FF480614FF09040EB
:1016D000FFF701FF0220FFF7F9F964100122510220
:1016E0004FF09040FFF7F7FE0220FFF7EFF9681C7C
:1016F000C5B2082DC6DB70BD00F05CFB1148FFF7DA
:10170000DFF900F0CFFE104800F0BAFE0120FFF72D
:101710005BFC0E48FFF7D0FBFFF731FAFFF75CFAEE
:10172000FFF781FB18B10AA0FFF766F902E00EA0EF
:10173000FFF762F94FF47A70FFF7F0F901E000F07B
:101740003DF8FCE700440040140000204801002060
:101750004453313842323020496E697420457272E8
:101760006F72210A000000004453313842323020A9
:10177000496E6974204F4B210A00000010B50C48D7
:10178000006801280AD10B48FFF773FB0949086874
:1017900000F052FC6420FFF7C1F908E0044800683B
:1017A000022804D1FFF7C2FA034800F0DFFD10BDA4
:1017B0000C000020480100201400002010B5FFF7A5
:1017C00051FC0446082C4BD2DFE804F04A04124ACC
:1017D0004A3C202E2A48007800EB4000294901EBC2
:1017E000800040782649087000202749887338E037
:1017F0002348007800EB4000224901EB800080780C
:101800001F4908700020204988732AE01C4800788E
:1018100000EB40001B4901EB80000079184908707B
:101820000020194988731CE01548007800EB40003F
:10183000144901EB8000C07811490870002012495A
:1018400088730EE00E48007800EB40000D4901EB74
:101850008000C0780A49087000200B49887300E0B6
:1018600000BF00BF0020084988730549097801EBD3
:101870004101044A02EB81018868804710BD0000E5
:101880003C00002040000020380100202DE9F041FC
:1018900003460D46164600240027A046244800684B
:1018A00000F4E060B0F5A06F15D006DCB0F5407F25
:1018B00018D0B0F5806F19D110E0B0F5C06F06D028
:1018C000B0F5E06F12D100274FF0040815E00127B2
:1018D0004FF0030811E00227B8460EE003274FF04F
:1018E00001080AE004274FF0000806E04FF4A0606A
:1018F00000F022F80227B84600BF00BFC7F104007D
:1019000005FA00F4C8F104010F20C8403040044338
:1019100024010848C45403F01F01012088405911D4
:10192000890001F1E021C1F80001BDE8F08100006B
:101930000CED00E000E400E002490143024A1160BE
:10194000704700000000FA050CED00E0024A0A4072
:101950000243024B1A60704780FFFF1F08ED00E052
:101960002DE9F04F8FB004464FF0000CE046002008
:10197000002200258146CDF838900021CDF8349022
:10198000CDF83090CDF82C900023CDF82890CDF8EC
:101990002490CDF82090002600270FF24C2999E8DA
:1019A000004CD9F80C90CDE905BECDF810A0CDF8CB
:1019B0001C900FF2382ADAE9009ACDE9029A0FF268
:1019C0002C2ADAE9009ACDE9009ADFF82C92D9F8AE
:1019D0000490C9F3810CBCF1000F06D0BCF1010FDB
:1019E00005D0BCF1020F3FD103E0844A3EE0834AB8
:1019F0003CE0DFF80492D9F80490C9F38343DFF8A0
:101A0000F891D9F80490C9F3C069CDF82890DDF8B1
:101A10002890B9F1000F01D0113300E09B1CDFF8D2
:101A2000D891D9F80490C9F30049CDF82490DDF895
:101A30002490B9F1000F12D0DFF8BC91D9F82C90A6
:101A400009F00F0909F10109CDF82090DFF8ACA1E8
:101A5000DDF82090BAFBF9F909FB03F203E0DFF8A7
:101A6000A09103FB09F201E0644A00BF00BFDFF868
:101A70008891D9F80490C9F303160DF1100919F8EB
:101A8000067022FA07F5DFF87091D9F80490C9F3CF
:101A900002260DF1080919F8067025FA07F9CDF8A4
:101AA0003890DFF85491D9F80490C9F3C2261DF894
:101AB000067025FA07F1072C72D2DFE804F004065D
:101AC000080A0C475B00104689E0284687E00E981C
:101AD00085E0084683E0DFF82091D9F8309009F4DA
:101AE0008079B9F5807F04D0DFF81891CDF8349073
:101AF0002AE0DFF80491D9F80490C9F38138B8F1ED
:101B0000000F09D0B8F1010F0BD0B8F1020F0DD0C2
:101B1000B8F1030F16D110E04FEA5109CDF8349017
:101B200011E04FEA9109CDF834900CE04FF006092E
:101B3000B1FBF9F9CDF8349005E04FEAD109CDF8C1
:101B4000349000E000BF00BF0D9848E0DFF8A89097
:101B5000D9F8309009F04009B9F1400F04D048F2AB
:101B60001209CDF8309003E04FF40049CDF83090E1
:101B70000C9834E0DFF88090D9F8309009F0030930
:101B8000B9F1000F01D10B9126E0DFF86C90D9F884
:101B9000309009F00309B9F1010F02D10B921BE05B
:101BA0001CE0DFF85490D9F8309009F00309B9F13E
:101BB000020F04D14FF40049CDF82C900CE0DFF86F
:101BC0003890D9F8309009F00309B9F1030F03D127
:101BD000DFF82890CDF82C900B9800E000BF00BFF4
:101BE0000FB0BDE8F08F0000000000000000000012
:101BF00001020304060708090010024000127A00DF
:101C000000093D00809FD500064A02EB901109684B
:101C100000F01F0301229A401143024B03EB901284
:101C20001160704700100240064A02EB90110968EB
:101C300000F01F0301229A409143024B03EB9012E4
:101C40001160704700100240064A02EB90110968CB
:101C500000F01F0301229A401143024B03EB901244
:101C6000116070470010024070B504460B46CD1756
:101C700001EB9575AD10A1EB8505AE000F25B540C4
:101C8000E843CD1701EB9575AD10A1EB8505AD00CF
:101C900004FA05F2CD1701EB9575AD1035B1012DA4
:101CA0000ED0022D16D0032D28D11DE0154B9B68B8
:101CB0000340144DAB602B469B681343AB601EE0A2
:101CC000104BDB6803400F4DEB602B46DB68134382
:101CD000EB6014E00B4B1B6903400A4D2B612B4654
:101CE0001B6913432B610AE0064B5B690340054DFA
:101CF0006B612B465B6913436B6100E000BF00BF63
:101D000070BD00000000014000200021254A12683B
:101D100042F48032234B1A6000BF401C214A1268F3
:101D200002F4003111B9B0F5006FF6D11D4A126806
:101D300002F4003202B970471A4A5268194B5A60CD
:101D40001A4652685A601A4652685A601A465268D1
:101D5000154B1A40134B5A601A46526842F4E81267
:101D60005A601A46126842F080721A6000BF0D4A2B
:101D7000126802F00072002AF9D00A4A526822F072
:101D80000302084B5A601A46526842F002025A6037
:101D900000BF044A526802F00802002AF9D000BFCE
:101DA000C9E7000000100240FFFFC27710B5FFF73F
:101DB000ABFF10BD10B5124800684FF47A71B0FB4C
:101DC000F1F4601EB0F1807F01D301200FE0601EAE
:101DD0004FF0E02148610F214FF0FF30FEF76CFD1E
:101DE00000204FF0E021886107200861002008B141
:101DF00000BFFEE70021481EFEF75EFD10BD00009B
:101E0000C4000020016841F08001016070470000BB
:101E100010B504463349601A8C4217D00CDCB4F17B
:101E2000804F1CD03048204410B3B0F5406F28D00C
:101E3000B0F5E05F52D12DE0B0F5A05F33D0B0F542
:101E4000C05F39D0B0F5E05F48D13EE040F20B30E2
:101E5000FFF7FAFE40F20B30FFF7E6FE3FE04FF4EB
:101E60008060FFF7F1FE4FF48060FFF7DDFE36E0A3
:101E700040F20140FFF7E8FE40F20140FFF7D4FED8
:101E80002DE040F20440FFF7DFFE40F20440FFF790
:101E9000CBFE24E04FF48160FFF7D6FE4FF4816063
:101EA000FFF7C2FE1BE04FF44470FFF7CDFE4FF486
:101EB0004470FFF7B9FE12E040F21130FFF7C4FEA4
:101EC00040F21130FFF7B0FE09E040F21230FFF7A8
:101ED000BBFE40F21230FFF7A7FE00E000BF00BFDC
:101EE00010BD0000002C014000FCFFBF016821F084
:101EF000010101607047016841F001010160704714
:101F0000CA430261704702461069084008B10120C7
:101F100070470020FCE700000A888262234A904252
:101F200005D0B0F1804F02D0214A90420BD1026817
:101F300022F07002026002684B881A430260026855
:101F40008B881A4302608A68C262184A904211D094
:101F5000B0F1804F0ED0164A90420BD0154A9042F5
:101F600008D0154A904205D0144A904202D0144A33
:101F7000904207D1026822F4407202600268CB8866
:101F80001A430260094A904208D00B4A904205D099
:101F90000A4A904202D00A4A904201D10A7B026367
:101FA000426942F00102426170470000002C01408A
:101FB0000004004000200040004001400044014077
:101FC0000048014000210180418081804FF6FF716F
:101FD00081600021C1800173704710B54FF48063A8
:101FE000002211464FF09040FFF782FA4FF48061D3
:101FF0004FF09040FFF774FA10BD000070B5044632
:102000000D46442000F043FAFFF703FB04F1BF0143
:10201000C8B200F03CFA2846FFF730FBFFF7B0FAF1
:10202000FFF7F7FA0349487800F031FAFFF7F1FAC1
:1020300070BD0000140000202DE9FE4F0746384611
:10204000FEF76EFA84B20A2094FBF0F100FB114017
:10205000C5B20A2094FBF0F00A2190FBF1F201FBDB
:102060001200C6B2642094FBF0F090FBF1F201FB89
:10207000120000F0FF084FF47A7094FBF0F0C0B249
:1020800002902046FEF73AFA81463946FEF7DFF81D
:102090000190092C33DA5B4890F820100120FFF7FB
:1020A000ADFF5848405D40F080010220FFF7A6FFD9
:1020B00055490198FEF7CEF80090FEF731FA00F08E
:1020C000FF090A2099FBF0F100FB119000F0FF0AD4
:1020D0000A2099FBF0F00A2190FBF1F201FB1200BB
:1020E00000F0FF0B474810F80B100320FFF786FFA6
:1020F000444810F80A100420FFF780FF80E0092C04
:1021000034DD642C32DA3F48815D0120FFF776FF31
:102110003C48405D40F080010220FFF76FFF3A49E4
:102120000198FEF797F80090FEF7FAF900F0FF0922
:102130000A2099FBF0F100FB119000F0FF0A0A2041
:1021400099FBF0F00A2190FBF1F201FB120000F084
:10215000FF0B2C4810F80B100320FFF74FFF294806
:1021600010F80A100420FFF749FF49E0642C2EDD27
:10217000B4F57A7F2BDA234810F808100120FFF716
:102180003DFF2048815D0220FFF738FF1D48405D7C
:1021900040F080010320FFF731FF1B490198FEF753
:1021A00059F88346FEF7BCF900F0FF090A2099FBB5
:1021B000F0F00A2190FBF1F201FB120000F0FF0A9F
:1021C000104810F80A100420FFF718FF18E0B4F5C3
:1021D0007A7F15DB0B48415D0420FFF70FFF0948AC
:1021E000815D0320FFF70AFF064810F8081002205F
:1021F000FFF704FF034A0298115C0120FFF7FEFE7F
:10220000BDE8FE8F082600080000C8422DE9F04115
:1022100004460A2094FBF0F100FB1140C5B20A20ED
:1022200094FBF0F00A2190FBF1F201FB1200C6B220
:10223000642094FBF0F090FBF1F201FB1200C7B2B6
:102240004FF47A7094FBF0F090FBF1F201FB120076
:1022500000F0FF08364890F820100520FFF7CEFE6A
:10226000B4F57A7F14DB3248415D0420FFF7C6FEE7
:102270002F48815D0320FFF7C1FE2D48C15D02207C
:10228000FFF7BCFE2A4810F808100120FFF7B6FE41
:10229000B4F57A7F16DA632C14DD2548415D0420FD
:1022A000FFF7ACFE2248815D0320FFF7A7FE204820
:1022B000C15D0220FFF7A2FE1D4890F8201001200A
:1022C000FFF79CFE642C17DA092C15DD1848415DD8
:1022D0000420FFF793FE1648815D0320FFF78EFE72
:1022E000134890F820100220FFF788FE104890F85D
:1022F00020100120FFF782FE0A2C16DA0C48415DFF
:102300000420FFF77BFE0A4890F820100320FFF717
:1023100075FE074890F820100220FFF76FFE044872
:1023200090F820100120FFF769FEBDE8F081000061
:102330000826000870B50546002409E0094A02EBAA
:102340008502115D621CD0B2FFF758FE601CC4B25A
:10235000042CF3DB044890F820100520FFF74EFE14
:1023600070BD000029260008082600082DE9F04766
:102370008146274880780A2190FBF1F090FBF1F22A
:1023800001FB1200C5B22248807890FBF1F201FBFC
:102390001200C6B21E48407890FBF1F090FBF1F2BB
:1023A00001FB1200C7B21A48407890FBF1F201FB22
:1023B000120000F0FF08164804781648415D01201D
:1023C000FFF71CFE1348815D0220FFF717FE11483E
:1023D000C15D0320FFF712FE0E4810F8081004201C
:1023E000FFF70CFE204604EBD0714910A4EB41012D
:1023F00031B9084890F820100520FFF7FFFD04E0F0
:102400000448417F0520FFF7F9FDBDE8F087000093
:10241000270000200826000810B540F21150FFF7F1
:10242000F3FB4FF40073002201214FF09040FFF7BF
:102430005FF84FF40073032201214FF09040FFF743
:102440007EF84FF400704FF09041886240F21150D6
:10245000FFF7DAFB4FF48063002201214FF0904038
:10246000FFF746F84FF48063032201214FF09040BC
:10247000FFF765F84FF480604FF09041886210BD1F
:1024800010B50446FFF7C8FF8B20607010BD10B573
:102490000446FFF796F82046FFF7F0F8FFF770F8CC
:1024A00010BD00001FB54FF4E160FFF7ADFB12480F
:1024B000FFF7AEFC6846FFF785FD2320ADF800006E
:1024C0000020ADF80200ADF80400012002900020C9
:1024D000ADF806008DF80C0069460748FFF71CFDB3
:1024E0000548FFF78FFC01210348FFF709FD02486B
:1024F000FFF7FCFC1FBD0000002000402DE9F04765
:1025000004460D460027B846B9460026194820441F
:1025100038B1B0F5744F09D10620FFF721FA07460C
:1025200005E00220FFF71CFA074600E000BF00BFED
:10253000206800F4004070B1780000EB5500B0FB5B
:10254000F5F64FF6F07006EA0008C6F3420948EACD
:102550000900E0600CE007EB5500B0FBF5F64FF624
:10256000F07006EA000806F00F0948EA0900E0608A
:10257000BDE8F08700BCFFBFC1F30802826270476C
:1025800010B504460D48204458B1B0F5744F11D130
:1025900040F20E30FFF758FB40F20E30FFF744FBDD
:1025A00009E040F21140FFF74FFB40F21140FFF706
:1025B0003BFB00E000BF00BF10BD000000BCFFBF40
:1025C000016841F001010160704710B5024602EB5D
:1025D0009110006801F01F040123A340184008B1C6
:1025E000012010BD0020FCE7026822F00402026016
:1025F00002680A4302607047026822F00802026023
:1026000002680A43026070473F065B4F666D7D07B4
:102610007F6F777C395E7971506E1C3E78317674AD
:102620001E38545C6780400800713E3F06713E3F93
:102630005B713E3F4F713E3F66713E3F6D713E3F65
:102640007D713E3F07713E3F7F713E3F6F713E0699
:102650003F713E0606713E065B7950503F795050FF
:102660000600000084260008000000203801000059
:10267000540700083027000838010020200400001B
:10268000180A00080119200F81838587898B8D80A6
:10269000828486888A8C0615120705061642011365
:1026A0007D17460801020506139D12460802030124
:1026B000071315134608030402081A210C450405E4
:1026C00003091A2D0C450501040A1A390C1A0601D2
:1026D000411AA93C1A0701411A1F182901411A2B56
:1026E0000C1A0901411A370C1A0A01411A450C113A
:1026F00034A24A041A480A4904120C3A48352905FA
:102700002210291D1A1152290829131C1105130220
:102710007B14053412143A48C522205A80201A1618
:102720001EA914111302054C0D0705993100000074
:040000050800016985
:00000001FF
