:020000040800F2
:100000000805002081010008BD080008B5080008A7
:10001000B9080008B5070008490A000800000000F8
:10002000000000000000000000000000EB080008D5
:10003000B907000800000000E9080008ED08000802
:100040009B0100089B0100089B0100089B01000820
:100050009B010008BB0700089B010008BD070008C2
:100060009B0100089B0100089B0100089B01000800
:100070009B0100089B0100089B0100089B010008F0
:100080009B0100089B010008000000009B01000884
:10009000010A00089B0100089B0100089B01000861
:1000A0009B0100089B0100089B0100089B010008C0
:1000B0009B010008000000009B01000800000000F8
:1000C0009B010008000000009B0100089B01000844
:1000D0009B0100089B0100089B0100080000000034
:1000E00000000000000000009B0100089B010008C8
:1000F0009B0100089B0100089B0100089B01000870
:100100009B01000800000000000000009B010008A7
:1001100000000000000000000000000000000000DF
:1001200000000000000000000000000000000000CF
:1001300000000000000000000000000000000000BF
:1001400000000000000000000000000000000000AF
:1001500000000000000000009B0100089B01000857
:100160009B0100089B010008DFF810D000F000FBA5
:1001700000480047B9190008AFF3008008050020C7
:100180000648804706480047FEE7FEE7FEE7FEE731
:10019000FEE7FEE7FEE7FEE7FEE7FEE7710900087F
:1001A0006901000840EA01039B0703D009E008C980
:1001B000121F08C0042AFAD203E011F8013B00F82C
:1001C000013B521EF9D27047D2B201E000F8012B78
:1001D000491EFBD270470022F6E710B513460A46C7
:1001E00004461946FFF7F0FF204610BDF0B480EA40
:1001F0000102D40F4200B2EB410F02D20246084680
:1002000011464A0042D0C30DDDB2C1F3C752AD1A48
:10021000202D35DAC1F3160141F4000204B1524237
:10022000C5F1200602FA06F12A411044B3EBD05F73
:1002300023D0C4B1012DA0EBC35009DCF0BC4FF0BA
:10024000004202EAC352DBB200F5000000F004BA3B
:10025000400000F1807000EBC350A0F1807040EAD4
:10026000D170490009E0490841EAC071A0EBC350D0
:1002700000F50000400800EBC350F0BC00F0E3B90B
:100280006142012202EB4101001BF6E7F0BC70471E
:1002900081F00041AAE780F00040A7E780EA010270
:1002A00010B502F00043400022D04A001FD0010EDA
:1002B00001EB1261C0F35600C2F3560240F4000095
:1002C00042F40002A0FB022000047F39140400D095
:1002D000401C50EA124001D44000491EC2B20C0634
:1002E00004EBD010401C4008802A02D003E000201C
:1002F00010BD20F00100002900DA0020184310BDD5
:100300002DE9FE4F804681EA0300C00F0C460090A5
:1003100021F0004123F00045B8EB0200A94105D2CD
:100320004046214690461C460B46024623F00040BC
:10033000104347D0270DC7F30A00C3F30A510290B8
:10034000401A019040286BDAC3F3130040F4801B7D
:100350000098924620B10023D2EB030A63EB0B0B0B
:1003600001985946C0F14002504600F04BF906464C
:100370000D4650465946019A00F053F910EB08001B
:100380006141002487EA115284EAE7731A4340D09E
:10039000009A62B3019A012A4FEA075215DC001B4A
:1003A00061EB02014FF0004202EA0752CDE9004240
:1003B000001C41F5801132462B4600F08AF903B04B
:1003C000BDE8F08F40462146F9E7001B61EB0201D2
:1003D000001C41F5801300185B412018A2F500179E
:1003E00047EB030140EAD570B6196D4111E06D0885
:1003F0004FEA360645EAC0754FEA0752001B61EB2B
:100400000201001C41F5801149084FEA3000001933
:10041000514132462B4603B0BDE8F04F00F04AB9D7
:100420000098012240000023D0EB020263EBE0734E
:10043000009821464FEAE074B8EB000061EB04013C
:10044000E9E783F000435BE781F0004158E72DE9DD
:10045000FE4F81EA030404F0004421F000410094BF
:100460004FF0000B23F0004350EA01045ED052EA43
:1004700003045BD0C3F30A54C1F30A552C44A4F21D
:10048000F3340194A0FB0254C1F3130141F4801131
:10049000C3F3130343F4801301FB024400FB034E38
:1004A000840A970A44EA815447EA8357A4FB076801
:1004B00002958D0A05FB07854FEA932C04FB0C542B
:1004C0002705029D4FEA065847EA1637B5EB08059F
:1004D0006EEB070C870E920E47EA811742EA8312F1
:1004E000A7FB0201B6EB0B0164EB00042B0D43EA02
:1004F0000C335E1844EB1C50DA465146E7FB020110
:10050000C5F313044FEA0B3343EA14534FEA0432A2
:10051000019C43EA0603A4F10C040294009CCDE97B
:1005200000B400F0D6F803B0BDE8F08F002001461B
:10053000F9E7C10F80EAE0700844CA07962300215A
:1005400000F08AB896230022114600F085B80EB557
:1005500040F2334102910021CDE900110A460B46D9
:1005600000F0B7F803B000BD20F00040C10DC0F3AB
:10057000160040F400007F2901DA00207047962918
:1005800003DCC1F19601C840704796398840704736
:1005900000F0004230F000400AD0C10D01F560715A
:1005A000C0F3160042EA0151C208400711437047E8
:1005B00000200146704701F0004330B421F00041B3
:1005C00050EA010206D00A0DA2F56072C1F31301D0
:1005D000002A02DC30BC00207047440F44EAC1040A
:1005E000C100E01830BC00EBC25000F02CB8000095
:1005F000002801DBC0F10040002901DBC1F100410E
:1006000088427047202A04DB203A00FA02F10020D9
:1006100070479140C2F1200320FA03F31943904040
:100620007047202A06DBCB17203A41FA02F043EA52
:10063000E07306E041FA02F3D040C2F1200291409B
:100640000843194670470029A8BF7047401C49005D
:1006500008BF20F00100704710B4B0FA80FC00FA27
:100660000CF050EA010404BF10BC704749B1CCF152
:10067000200421FA04F411FA0CF118BF01212143DE
:100680000843A3EB0C01CB1D4FEA00614FEA102099
:1006900042BF002010BC704700EBC350104400293B
:1006A000A4BF10BC7047401C490008BF20F00100E7
:1006B00010BC704710B5141E73F1000408DA401C1A
:1006C00041F1000192185B411A4301D120F0010071
:1006D00010BD2DE9F04D92469B4611B1B1FA81F261
:1006E00002E0B0FA80F220329046FFF78BFF04461A
:1006F0000F4640EA0A0041EA0B0153465A460843B6
:1007000013D0114653EA010019D0C8F140025046F7
:1007100000F040F805460E46504659464246FFF75F
:1007200071FF084305D0012004E020463946BDE8AA
:10073000F08D0020054346EAE0762C4337430A98C3
:100740006305E40AA0EB08000022FD0A44EA4754CE
:100750000A3002D500200146E9E701051019694178
:10076000DDE9084500196941BDE8F04DA2E7000048
:10077000064C074D06E0E06840F0010394E80700EE
:1007800098471034AC42F6D3FFF7F2FCF42500088A
:1007900014260008202A04DB203A21FA02F0002166
:1007A000704721FA02F3D040C2F120029140084381
:1007B0001946704700BFFEE77047704710B510201C
:1007C00000F0A0FD012804D138490871102000F084
:1007D00093FD802000F096FD012819D180214FF073
:1007E000904000F0DCFF98B93048408980B9002083
:1007F0002E49087202212E4800F0D1FF10B10120CD
:100800002A490872012029494881802000F074FD9E
:10081000802000F077FD012847D180214FF09040E3
:1008200000F0BDFF012840D12048408901283CD17B
:1008300002211F4800F0B3FFB0B91C48007A01281C
:1008400012D110214FF0904000F0A9FF48B917488D
:10085000407B012805D103201449887301200873C7
:1008600002E00120114988730221114800F097FF2E
:10087000A8B10E48007A90B910214FF0904000F0D6
:100880008EFF48B90948407B012805D1042007495B
:1008900088730120087302E0022004498873002055
:1008A00002494881802000F027FD10BDEC000020A7
:1008B0000004004800BFFEE700BFFEE770470000ED
:1008C00010B5002807DA0A07140E054A00F00F03D6
:1008D0001B1FD45403E00A07130E024A135410BD21
:1008E00018ED00E000E400E07047704710B500F03C
:1008F00071F91C480079012804D11A480068401C8D
:10090000184908601748807B062804D11548C0881C
:10091000401C1449C88014480068401C12490860F3
:1009200008460068B0F57A6F03D801200F490860C7
:1009300017E00D480068B0F57A6F09D90A480068D9
:1009400042F6E061884203D202200849086008E0CC
:100950000548006842F6E061884202D90020024959
:10096000086010BDEC000020080000200C000020F2
:1009700010B51F48006840F001001D49086000BF25
:100980001B48006800F002000028F9D018484068B1
:10099000184908401649486008464068164908400A
:1009A000134948600846406820F440004860084603
:1009B0000068124908400E4908600846C06A20F0E5
:1009C0000F00C8620846006B40F243118843084993
:1009D00008630846406B20F00100486300208860EF
:1009E00001F0DEF900214FF0006001F0FDF810BDCC
:1009F000001002400C00FF08FFFFC0F7FFFFF2FEEF
:100A000010B501210D4801F012FB012815D10C4A47
:100A100051680C4A1068FFF7EBFD08D24FF0904088
:100A2000406980F008004FF09041486101E000F01B
:100A300034F80121014801F0F7FA10BD00400140EF
:100A4000CC000020FC00002000BFFEE702E008C848
:100A5000121F08C1002AFAD170477047002001E038
:100A600001C1121F002AFBD1704710B540F211508E
:100A700001F0C4F80823002201214FF0904000F05B
:100A800096FE0823032200214FF0904000F0B6FEAE
:100A900008204FF09041886210BD10B50022082157
:100AA0004FF0904000F076FE10BD00001FB54FF4EF
:100AB000C26001F0A3F8154801F0D8F9684601F0CA
:100AC000C2FA2320ADF800000020ADF80200ADF816
:100AD00004000A2002900020ADF806008DF80C00FA
:100AE00069460A4801F046FA0121084801F09CFADB
:100AF0000121064801F094FA00221146142001F069
:100B000013F8024801F025FA1FBD00000040014023
:100B10002DE9F04F85B0044689460020049009F085
:100B20000F0B200100EB291000F0FF0A5046FFF7E1
:100B300000FD0490082C09DD6FEA0A00401C00F05B
:100B4000FF0ACAF10000FFF7F4FC04905846FFF7D3
:100B5000FEFC00220B4BCDE90001FFF778FC0746B5
:100B600088460498FFF714FD3A464346CDE9020152
:100B7000FFF7C6FB0546FFF71EFD0490049805B07D
:100B8000BDE8F08F0000B03F0349086000BF024994
:100B900009680029FBD170471000002010B50446F9
:100BA0000B4801F0D6F90AE000BF0121084801F026
:100BB000D8F90028F9D00121054801F0CFF9201E0D
:100BC000A4F101018CB2EFD1014801F0BDF910BDD3
:100BD000002000400448006820B103480068401E1F
:100BE00001490860704700001000002010B504465D
:100BF00003E04FF47A70FFF7D1FF201EA4F101014A
:100C00008CB2F6D110BD10B5044640F2115000F080
:100C1000F5FF3CB90223002211464FF0904000F04E
:100C2000C6FD08E0012C06D10223002201214FF06D
:100C3000904000F0BCFD0223032201214FF09040C0
:100C400000F0DCFD02204FF09041886210BD10B52D
:100C500040F2115000F0D2FF40F2115000F0CEFFF0
:100C60000123002219464FF0904000F0A0FD202300
:100C7000002201214FF0904000F099FD0123032252
:100C800019464FF0904000F0B9FD202303220121C6
:100C90004FF0904000F0B2FD01204FF0904188628B
:100CA0002020886210BD000070B500218E2000F069
:100CB000C1F8002415E01048005D0A2190FBF1F214
:100CC00001FB12010C48005D0A2290FBF2F001EBDF
:100CD0000010C5B20949085D294600F0ABF8601C58
:100CE000C4B2072CE7DB80218E2000F0A3F84FF47C
:100CF0007A70FFF77BFF70BD2E00002027000020D8
:100D00002DE9F041064600250027002220214FF062
:100D1000904000F03FFD0120FFF740FF002201213D
:100D20004FF0904000F036FD0120FFF737FF012221
:100D300020214FF0904000F02DFD0120FFF72EFF05
:100D4000304600F0A5F80120FFF728FF0020FFF74C
:100D50005AFF00241DE002214FF0904000F01FFDDB
:100D60000746681040EAC710C5B2012211464FF08D
:100D7000904000F00FFD0120FFF710FF002201213D
:100D80004FF0904000F006FD0120FFF707FF601CC8
:100D9000C4B2082CDFDB002220214FF0904000F08D
:100DA000F9FC0120FFF7FAFE012211464FF09040B6
:100DB00000F0F0FC0120FFF7F1FE002202214FF0CD
:100DC000904000F0E7FC0120FFF7E8FE012202213D
:100DD0004FF0904000F0DEFC0120FFF7DFFE2846D8
:100DE000BDE8F0812DE9F04100241BE00F49085DCA
:100DF000FFF786FF0546C01705EB10700011A5EB45
:100E000000170A49085DFFF77BFF0646C01706EB8F
:100E10001070001100EB800007EB400004490855FA
:100E2000601CC4B2072CE1DBBDE8F081200000208B
:100E30001900002070B505460C46002220214FF015
:100E4000904000F0A7FC0120FFF7A8FE002201213E
:100E50004FF0904000F09EFC0120FFF79FFE012222
:100E600020214FF0904000F095FC0120FFF796FE06
:100E7000284600F00DF8204600F00AF80022202154
:100E80004FF0904000F086FC0120FFF787FE70BD18
:100E900070B504460120FFF7B6FE00251BE004F004
:100EA000010202214FF0904000F074FC6410012216
:100EB00011464FF0904000F06DFC0120FFF76EFEF0
:100EC000002201214FF0904000F064FC0120FFF768
:100ED00065FE681CC5B2082DE1DB70BD10B50220AF
:100EE00000F04CF8002240214FF0904000F052FCFE
:100EF0004FF41670FFF752FE012240214FF0904050
:100F000000F048FC1E20FFF749FE012000F036F8F3
:100F100040214FF0904000F042FC04464FF4FA703C
:100F2000FFF73CFE204610BD70B50446FFF7D6FF24
:100F3000CC2000F074F8442000F071F84FF44870B1
:100F4000FFF754FEFFF7CAFFCC2000F068F8BE2080
:100F500000F065F800F037F8054600F034F8064672
:100F600029463046FFF7D4FD2060206870BD0A2175
:100F7000C1712821817164210181704710B5044637
:100F800040F2115000F03AFE012C07D1402300221C
:100F900011464FF0904000F00AFC08E0022C06D108
:100FA0004023002201214FF0904000F000FC40233C
:100FB000032201214FF0904000F020FC40204FF030
:100FC0009041886210BD70B50024082523E00220FE
:100FD000FFF7D4FF002240214FF0904000F0DAFBF1
:100FE0000220FFF7DBFD012240214FF0904000F08E
:100FF000D1FB0F20FFF7D2FD641040214FF090404D
:1010000000F0CDFB012801D144F080043220FFF72D
:10101000C5FD681EC5B2002DD9DC204670BD70B577
:101020000446082527E00220FFF7A8FF0022402100
:101030004FF0904000F0AEFB0220FFF7AFFD04F050
:10104000010030B1012240214FF0904000F0A2FB9E
:1010500005E0002240214FF0904000F09BFB46202D
:10106000FFF79CFD012240214FF0904000F092FBE1
:101070006410681EC5B2002DD5DC70BD10B50446E5
:1010800040F2115000F0BAFD40F2125000F0B6FDEF
:1010900040F2115000F0B2FD4FF4C06000F0AEFD20
:1010A0008023002211464FF0904000F080FB022385
:1010B00000221146174800F07AFB10230022114647
:1010C0004FF0904000F073FB012C21D1012211461A
:1010D000072000F029FD01221146072000F024FD21
:1010E0000721002000F0BAFD0421002000F0B6FD29
:1010F00002220021802000F0A1F8802000F0FCF8FE
:1011000001220021102000F099F8102000F0F4F8DE
:1011100010BD00000004004810B5474800790128C0
:101120000FD1454800680A280BD94348407940B997
:1011300010214FF0904000F032FB10B901203E49E1
:1011400048713D484079012812D13B480068B0F50C
:10115000FA7F0DD938480068B0F57A7F08D210219F
:101160004FF0904000F01BFB10B90120324948734A
:101170003148407901280DD12F480068B0F57A7FB9
:1011800008D92D48007B012804D006202A498873FD
:101190000020487328484079012813D12648006868
:1011A000B0F5FA7F0ED910214FF0904000F0F7FA19
:1011B000012807D100202049487108600871487350
:1011C000087388731C484079012810D110214FF012
:1011D000904000F0E4FA012809D117480068B0F502
:1011E000FA7F04D202201449487100200860124896
:1011F000007901281CD110484079022818D10E48E6
:101200000068642814D910214FF0904000F0C7FA0C
:1012100038B90720084988730020086008714871B0
:1012200006E00520044988730020086008714871B1
:101230000148847B204610BDEC00002010B52D4BEA
:101240001B6883432B4C2360231D1B688343241D91
:101250002360231D1B688343241D2360231D1B68FB
:101260008343241D236011B101290ED105E0214BD8
:101270001B6803431F4C236008E01E4B1B1D1B68AB
:1012800003431C4C241D236000E000BF00BF32B1AB
:10129000012A11D0022A1CD0032A27D127E0154B9E
:1012A00008331B680343134C08342360231D1B6859
:1012B0008343241D23601BE00E4B08331B688343CC
:1012C0000C4C08342360231D1B680343241D23603A
:1012D0000EE0084B08331B680343064C08342360B8
:1012E000231D1B680343241D236001E000BF00BFD2
:1012F00000BF10BD000401400149086070470000B4
:101300001404014001460748006800EA010205484C
:101310001438006800EA010312B10BB101207047D4
:101320000020FCE7140401400149C8607047000038
:10133000002002400348006940F080000149086134
:10134000704700000020024070B504464FF4702042
:1013500000F052F80546B5B90C48006940F00200AB
:101360000A49086108464461006940F0400008618C
:101370004FF4702000F040F805460448006920F062
:10138000020002490861284670BD000000200240AA
:1013900010B500F05BF83420FFF7C6FF00BF05482A
:1013A000FFF7D2FF0128FAD03420FFF7BDFFFFF787
:1013B000C1FF10BD00FC000870B504460D4600F0EA
:1013C00045F80B4E0CE0002D00DC0CE030462168A7
:1013D00000F04EF8361D241D3420FFF7A5FF2D1F09
:1013E00004488642EFD900BFFFF7A4FF70BD00009C
:1013F00000FC0008FFFF000870B50546012400BF8F
:1014000000F00CF804466D1E012C01D1002DF7D11F
:10141000012C00D10424204670BD000000200A49A0
:10142000C96801F0010109B101200CE00649C96851
:1014300001F0100109B1032005E00349C96801F07A
:10144000040101B1022070470020024005480069F4
:1014500000F0800020B10448024948600348486019
:10146000704700000020024023016745AB89EFCDA3
:1014700070B504460D464FF47020FFF7BDFF0646D9
:101480008EB90A48006940F00100084908612560EA
:101490004FF47020FFF7B0FF06460448006920F0C3
:1014A000010002490861304670BD00000020024082
:1014B00010B5002000F084FF10BD000010B527E03B
:1014C000FFF72AFE0446012C04D0022C0BD0052C79
:1014D00016D111E011480068401C10490860002036
:1014E0000F4988730DE00D480068401E0B490860E5
:1014F00000200B49887304E000200949887308E044
:1015000000BF00BF0549098888B200F0C5FE00BFD2
:10151000D6E701200349087010BD000040000020FC
:10152000EC0000204400002010B5012000F048FF2E
:1015300010BD704710B5022000F042FF10BD000042
:1015400010B52DE0FFF7E8FD0446012C04D0022C75
:101550000DD0052C1DD115E0144948681449FEF73B
:1015600045FE1249486000201249887312E00F4975
:1015700048681149FEF78CFE0C49486000200D496F
:10158000887307E0094800F029FC002009498873A6
:1015900007E000BF00BF0549486800F08DFD00BFAF
:1015A000D0E701200549087010BD0000CC000020E4
:1015B000CDCC4C3EEC000020CDCCCC3D44000020F6
:1015C00010B5032000F0FCFE10BD000070B5002532
:1015D000002480E0FFF7A0FD0646012E04D0022E75
:1015E00034D0052E71D163E0072D2AD2DFE805F053
:1015F00004050B11171D230000BF601C44B23C2CD6
:1016000000DD00241DE0601C44B2172C00DD002426
:1016100017E0601C44B21F2C00DD012411E0601CA7
:1016200044B20C2C00DD01240BE0601C44B2072CFA
:1016300000DD012405E0601C44B2642C00DD0024C0
:1016400000BF00BF0020274988733FE0072D2AD242
:10165000DFE805F004050B11171D230000BF601E15
:1016600044B2002C00DA3C241DE0601E44B2002C81
:1016700000DA172417E0601E44B2002C00DA1F24A1
:1016800011E0601E44B2012C00DA0C240BE0601E55
:1016900044B2012C00DA072405E0601E44B2002C9D
:1016A00000DA642400BF00BF00200E4988730DE0FB
:1016B0000D494C55681CC5B20024002009498873A7
:1016C000062D01DD08E000E000BF00BF00BFA0B2B2
:1016D00000F0E2FD00BF7DE7FFF7E6FA01200349D5
:1016E000087070BDEC0000202E0000204400002097
:1016F00010B5042000F064FE10BD000010B53BE002
:10170000FFF70AFD0446012C04D0022C14D0052C4E
:101710002BD123E01B48007C082809DA1948007CFB
:10172000401C184908740846017C174800F0FAFE6E
:1017300000201649887319E01248007C012809DD51
:101740001048007C401E0F4908740846017C0E4872
:1017500000F0E8FE00200D49887307E0094800F01A
:101760003DFB00200949887307E000BF00BF054921
:10177000087C00F091FD00BFC2E701200449087019
:1017800010BD0000CC00002014000020EC00002060
:10179000440000200AB1816100E081627047024686
:1017A0001069084008B1012070470020FCE7F0B53F
:1017B00004460D4616462168E268002019E001271C
:1017C00087401F409FB14FEA400C032707FA0CF7F0
:1017D000B943470005FA07F739434FEA400C03279E
:1017E00007FA0CF7BA43470006FA07F73A43471CD3
:1017F000B8B21028E3D32160E260F0BDF0B50C462A
:101800001546012C03D146681E43466002E0466837
:101810009E434660826800210DE001268E401E40F6
:101820003EB14F000326BE40B2434E0005FA06F615
:1018300032434E1CB1B21029EFD38260F0BD10B517
:1018400000224FF400714FF09040FFF7A3FF0520F6
:10185000FFF7A4F900BF00F001FC0028FBD1012232
:1018600051024FF09040FFF795FF0220FFF796F9E5
:1018700000224FF400714FF09040FFF78BFF10BD36
:1018800010B5012251024FF09040FFF783FF4FF453
:101890008063002201214FF09040FFF788FF012272
:1018A00091024FF09040FFF775FF0220FFF776F9A5
:1018B0004FF48063002201214FF09040FFF777FF43
:1018C00000224FF480614FF09040FFF763FF10BD9E
:1018D00010B500224FF400714FF09040FFF75AFF0F
:1018E0000220FFF75BF94FF48063002201214FF0E3
:1018F0009040FFF75CFF00224FF480614FF0904072
:10190000FFF748FF0220FFF749F9012251024FF08B
:101910009040FFF73FFF0220FFF740F94FF480634C
:10192000002201214FF09040FFF741FF0122910278
:101930004FF09040FFF72EFF10BD70B50446002514
:1019400036E000224FF400714FF09040FFF722FF85
:1019500004F0010070B14FF48063002201214FF0C8
:101960009040FFF724FF012291024FF09040FFF7D3
:1019700011FF0EE04FF48063002201214FF09040F0
:10198000FFF715FF00224FF480614FF09040FFF702
:1019900001FF0220FFF702F96410012251024FF00B
:1019A0009040FFF7F7FE0220FFF7F8F8681CC5B279
:1019B000082DC6DB70BD000000F02AFA00F0C0FD63
:1019C0000120FFF75BFB1248FFF7D1FAFFF73FF961
:1019D000FFF74BF8FFF76AF8FFF75FF80D4800F0E4
:1019E000E3F9401C10B90B4800F0F8F90A4800F080
:1019F0008DFD4FF4FA70FFF7C7F8FFF76FFA4FF459
:101A00007A70FFF7F3F801E000F026F8FCE7000039
:101A1000FC000020CC0000201400002010B50B4872
:101A2000FFF782FA0A480068012804D107490868CC
:101A300000F042FB08E006480068022804D1FFF7E6
:101A4000D1F9044800F0D8FC10BD0000FC000020D3
:101A50000C0000201400002010B5FFF75DFB0446C9
:101A6000082C4BD2DFE804F04A04124A4A3C202EEC
:101A70002A48007800EB4000294901EB80004078BB
:101A80002649087000202749887338E023480078E9
:101A900000EB4000224901EB800080781F4908706C
:101AA0000020204988732AE01C48007800EB4000A1
:101AB0001B4901EB80000079184908700020194982
:101AC00088731CE01548007800EB4000144901EBD6
:101AD0008000C078114908700020124988730EE018
:101AE0000E48007800EB40000D4901EB8000C07803
:101AF0000A49087000200B49887300E000BF00BF4E
:101B00000020084988730549097801EB4101044A1E
:101B100002EB81018868804710BD0000440000206E
:101B200048000020EC0000202DE9F04103460D465E
:101B3000164600240027A0462448006800F4E06010
:101B4000B0F5A06F15D006DCB0F5407F18D0B0F529
:101B5000806F19D110E0B0F5C06F06D0B0F5E06F1E
:101B600012D100274FF0040815E001274FF00308B9
:101B700011E00227B8460EE003274FF001080AE003
:101B800004274FF0000806E04FF4A06000F022F8B0
:101B90000227B84600BF00BFC7F1040005FA00F4F1
:101BA000C8F104010F20C840304004432401084814
:101BB000C45403F01F01012088405911890001F12C
:101BC000E021C1F80001BDE8F08100000CED00E06B
:101BD00000E400E002490143024A1160704700003E
:101BE0000000FA050CED00E0024A0A400243024BF5
:101BF0001A60704780FFFF1F08ED00E0064A02EB05
:101C00009011096800F01F0301229A401143024B12
:101C100003EB90121160704700100240064A02EB7D
:101C20009011096800F01F0301229A409143024B72
:101C300003EB90121160704700100240064A02EB5D
:101C40009011096800F01F0301229A401143024BD2
:101C500003EB9012116070470010024070B504460B
:101C60000B46CD1701EB9575AD10A1EB8505AE00C8
:101C70000F25B540E843CD1701EB9575AD10A1EBED
:101C80008505AD0004FA05F2CD1701EB9575AD1091
:101C900035B1012D0ED0022D16D0032D28D11DE017
:101CA000154B9B680340144DAB602B469B68134358
:101CB000AB601EE0104BDB6803400F4DEB602B4622
:101CC000DB681343EB6014E00B4B1B6903400A4DC8
:101CD0002B612B461B6913432B610AE0064B5B69A2
:101CE0000340054D6B612B465B6913436B6100E05C
:101CF00000BF00BF70BD00000000014000200021B7
:101D0000254A126842F48032234B1A6000BF401CFF
:101D1000214A126802F4003111B9B0F5006FF6D112
:101D20001D4A126802F4003202B970471A4A52681A
:101D3000194B5A601A4652685A601A4652685A60DD
:101D40001A465268154B1A40134B5A601A4652688D
:101D500042F4E8125A601A46126842F080721A6021
:101D600000BF0D4A126802F00072002AF9D00A4A38
:101D7000526822F00302084B5A601A46526842F039
:101D800002025A6000BF044A526802F00802002AA8
:101D9000F9D000BFC9E7000000100240FFFFC27782
:101DA00010B5FFF7ABFF10BD30B587B005460A4C44
:101DB0002078F1280CD11822214601A8FEF7F2F96B
:101DC000182201A92846FEF7EDF9002007B030BD22
:101DD0004FF0FF30FAE7000000FC000810B586B0B5
:101DE00004461CB94FF0FF3006B010BD18216846FC
:101DF000FEF7F1F9182221466846FEF7D3F9FFF7FE
:101E0000C7FA18216846FFF7D7FA0020ECE7000070
:101E100010B5124800684FF47A71B0FBF1F4601EFF
:101E2000B0F1807F01D301200FE0601E4FF0E02170
:101E300048610F214FF0FF30FEF742FD00204FF0C8
:101E4000E021886107200861002008B100BFFEE79B
:101E50000021481EFEF734FD10BD0000E800002000
:101E6000016841F0800101607047000010B5044630
:101E70003349601A8C4217D00CDCB4F1804F1CD06F
:101E80003048204410B3B0F5406F28D0B0F5E05F83
:101E900052D12DE0B0F5A05F33D0B0F5C05F39D09E
:101EA000B0F5E05F48D13EE040F20B30FFF7C6FEF0
:101EB00040F20B30FFF7B2FE3FE04FF48060FFF7D7
:101EC000BDFE4FF48060FFF7A9FE36E040F201400E
:101ED000FFF7B4FE40F20140FFF7A0FE2DE040F214
:101EE0000440FFF7ABFE40F20440FFF797FE24E00A
:101EF0004FF48160FFF7A2FE4FF48160FFF78EFE82
:101F00001BE04FF44470FFF799FE4FF44470FFF765
:101F100085FE12E040F21130FFF790FE40F21130E2
:101F2000FFF77CFE09E040F21230FFF787FE40F237
:101F30001230FFF773FE00E000BF00BF10BD0000CD
:101F4000002C014000FCFFBF016821F0010101608D
:101F50007047016841F0010101607047CA430261A6
:101F6000704702461069084008B101207047002000
:101F7000FCE700000A888262234A904205D0B0F153
:101F8000804F02D0214A90420BD1026822F07002A9
:101F9000026002684B881A43026002688B881A4309
:101FA00002608A68C262184A904211D0B0F1804F34
:101FB0000ED0164A90420BD0154A904208D0154ACE
:101FC000904205D0144A904202D0144A904207D160
:101FD000026822F4407202600268CB881A430260F1
:101FE000094A904208D00B4A904205D00A4A9042D2
:101FF00002D00A4A904201D10A7B0263426942F050
:102000000102426170470000002C014000040040C2
:1020100000200040004001400044014000480140D1
:10202000C2680A43C2607047CA43026170470246F1
:10203000D06800EA01031069084010B10BB101201B
:1020400070470020FCE700210180418081804FF62D
:10205000FF7181600021C1800173704710B54FF49A
:102060008063002211464FF09040FFF7A0FB4FF431
:1020700080614FF09040FFF792FB10BD70B50446B1
:102080000D46442000F052FAFFF722FC04F1BF0194
:10209000C8B200F04BFA2846FFF74FFCFFF7CFFB22
:1020A000FFF716FC0349487800F040FAFFF710FCF0
:1020B00070BD0000140000202DE9FE4F0746384691
:1020C000FEF752FA84B20A2094FBF0F100FB1140B3
:1020D000C5B20A2094FBF0F00A2190FBF1F201FB5B
:1020E0001200C6B2642094FBF0F090FBF1F201FB09
:1020F000120000F0FF084FF47A7094FBF0F0C0B2C9
:1021000002902046FEF71EFA81463946FEF7C3F8D4
:1021100001905F4890F820100520FFF7AFFF092CD1
:1021200033DA5B4890F820100120FFF7A7FF5848EA
:10213000405D40F080010220FFF7A0FF5549019863
:10214000FEF7ACF80090FEF70FFA00F0FF090A2046
:1021500099FBF0F100FB119000F0FF0A0A2099FBB7
:10216000F0F00A2190FBF1F201FB120000F0FF0BEE
:10217000474810F80B100320FFF780FF444810F881
:102180000A100420FFF77AFF80E0092C34DD642C6C
:1021900032DA3F48815D0120FFF770FF3C48405D27
:1021A00040F080010220FFF769FF3A490198FEF7ED
:1021B00075F80090FEF7D8F900F0FF090A2099FBA6
:1021C000F0F100FB119000F0FF0A0A2099FBF0F0FB
:1021D0000A2190FBF1F201FB120000F0FF0B2C48EA
:1021E00010F80B100320FFF749FF294810F80A10D8
:1021F0000420FFF743FF49E0642C2EDDB4F57A7F1D
:102200002BDA234810F808100120FFF737FF204889
:10221000815D0220FFF732FF1D48405D40F08001E4
:102220000320FFF72BFF1B490198FEF737F8834681
:10223000FEF79AF900F0FF090A2099FBF0F00A2155
:1022400090FBF1F201FB120000F0FF0A104810F8B9
:102250000A100420FFF712FF18E0B4F57A7F15DBAF
:102260000B48415D0420FFF709FF0948815D032009
:10227000FFF704FF064810F808100220FFF7FEFEE3
:10228000034A0298115C0120FFF7F8FEBDE8FE8FBB
:10229000982500080000C8422DE9F04104460A20B4
:1022A00094FBF0F100FB1140C5B20A2094FBF0F062
:1022B0000A2190FBF1F201FB1200C6B2642094FBEC
:1022C000F0F090FBF1F201FB1200C7B24FF47A700C
:1022D00094FBF0F090FBF1F201FB120000F0FF081C
:1022E000364890F820100520FFF7C8FEB4F57A7F35
:1022F00014DB3248415D0420FFF7C0FE2F48815DAA
:102300000320FFF7BBFE2D48C15D0220FFF7B6FE9C
:102310002A4810F808100120FFF7B0FEB4F57A7FC4
:1023200016DA632C14DD2548415D0420FFF7A6FE74
:102330002248815D0320FFF7A1FE2048C15D0220F5
:10234000FFF79CFE1D4890F820100120FFF796FE35
:10235000642C17DA092C15DD1848415D0420FFF7BD
:102360008DFE1648815D0320FFF788FE134890F824
:1023700020100220FFF782FE104890F82010012064
:10238000FFF77CFE0A2C16DA0C48415D0420FFF7AB
:1023900075FE0A4890F820100320FFF76FFE0748EB
:1023A00090F820100220FFF769FE044890F82010F2
:1023B0000120FFF763FEBDE8F081000098250008CA
:1023C00070B50546002409E0094A02EB8502115D5B
:1023D000621CD0B2FFF752FE601CC4B2042CF3DBC7
:1023E000044890F820100520FFF748FE70BD00005B
:1023F000B9250008982500082DE9F04781462748AF
:1024000080780A2190FBF1F090FBF1F201FB1200C1
:10241000C5B22248807890FBF1F201FB1200C6B2EF
:102420001E48407890FBF1F090FBF1F201FB1200A6
:10243000C7B21A48407890FBF1F201FB120000F09D
:10244000FF08164804781648415D0120FFF716FE84
:102450001348815D0220FFF711FE1148C15D032082
:10246000FFF70CFE0E4810F808100420FFF706FED8
:10247000204604EBD0714910A4EB410131B9084862
:1024800090F820100520FFF7F9FD04E00448417F93
:102490000520FFF7F3FDBDE8F087000019000020DC
:1024A0009825000810B540F21150FFF7A7FB4FF434
:1024B0000073002201214FF09040FFF778F94FF4AC
:1024C0000073032201214FF09040FFF797F94FF47A
:1024D00000704FF09041886240F21150FFF78EFB80
:1024E0004FF48063002201214FF09040FFF75FF925
:1024F0004FF48063032201214FF09040FFF77EF9F3
:102500004FF480604FF09041886210BD10B50446D2
:10251000FFF7C8FF0248007C8730607010BD0000E4
:10252000CC00002001F187024270704710B50446CC
:10253000FFF7A6F92046FFF700FAFFF780F910BD74
:102540001FB54FF4E160FFF759FB1248FFF78EFC0F
:102550006846FFF778FD2320ADF800000020ADF8B5
:102560000200ADF80400012002900020ADF8060042
:102570008DF80C0069460748FFF7FCFC0548FFF79B
:102580006FFC01210348FFF7E9FC0248FFF7DCFC80
:102590001FBD0000002000403F065B4F666D7D07B9
:1025A0007F6F777C395E7971506E1C3E783176741E
:1025B0001E38545C6780400800713E3F06713E3F04
:1025C0005B713E3F4F713E3F66713E3F6D713E3FD6
:1025D0007D713E3F07713E3F7F713E3F6F713E060A
:1025E0003F713E0606713E065B7950503F79505070
:1025F000060000001426000800000020EC00000087
:102600004C0A000800270008EC0000201C04000011
:102610005C0A00080000000000000000000000004C
:1026200000000000000000000000000000000000AA
:102630000000000081838587898B8D808284868855
:102640008A8C00001207050616000000000000003A
:102650000000000000000000000000000000000179
:10266000000000001D1A000801020506000000001D
:10267000B11400080203010700000000291500083A
:1026800003040208000000003515000804050309D2
:1026900000000000C11500080501040A0000000048
:1026A000F11600080606060600000000BD1400082A
:1026B000070707070000000033150008080808088E
:1026C0000000000041150008090909090000000088
:1026D000CD1500080A0A0A0A00000000FD160008CD
:1026E000F100000000000E4200004841F40100002B
:1026F0000403071E780000000000000000A24A0446
:040000050800016985
:00000001FF
