:020000040800F2
:100000006005002081010008E1080008D908000807
:10001000DD080008D7070008250A000800000000D6
:100020000000000000000000000000000F090008B0
:10003000DB070008000000000D0900081109000896
:100040009B0100089B0100089B0100089B01000820
:100050009B010008DD0700089B010008E10700087C
:100060009B0100089B0100089B0100089B01000800
:100070009B0100089B0100089B0100089B010008F0
:100080009B0100089B010008000000009B01000884
:100090009B0100089B0100089B0100089B010008D0
:1000A0009B0100089B0100089B0100089B010008C0
:1000B0009B010008000000009B01000800000000F8
:1000C0009B010008000000009B0100089B01000844
:1000D0009B0100089B0100089B0100080000000034
:1000E00000000000000000009B0100089B010008C8
:1000F0009B0100089B0100089B0100089B01000870
:100100009B01000800000000000000009B010008A7
:1001100000000000000000000000000000000000DF
:1001200000000000000000000000000000000000CF
:1001300000000000000000000000000000000000BF
:1001400000000000000000000000000000000000AF
:1001500000000000000000009B0100089B01000857
:100160009B0100089B010008DFF810D000F0E6FAC0
:100170000048004789190008AFF30080600500209F
:100180000648804706480047FEE7FEE7FEE7FEE731
:10019000FEE7FEE7FEE7FEE7FEE7FEE7950900085B
:1001A00069010008F0B480EA0102D40F4200B2EB0A
:1001B000410F02D20246084611464A0042D0C30D02
:1001C000DDB2C1F3C752AD1A202D35DAC1F31601E5
:1001D00041F4000204B15242C5F1200602FA06F1D0
:1001E0002A411044B3EBD05F23D0C4B1012DA0EB62
:1001F000C35009DCF0BC4FF0004202EAC352DBB24C
:1002000000F5000000F00FBA400000F1807000EB34
:10021000C350A0F1807040EAD170490009E049085C
:1002200041EAC071A0EBC35000F50000400800EBAC
:10023000C350F0BC00F0EEB96142012202EB410173
:10024000001BF6E7F0BC704781F00041AAE780F0A0
:100250000040A7E780EA010210B502F00043400029
:1002600022D04A001FD0010E01EB1261C0F35600EC
:10027000C2F3560240F4000042F40002A0FB022048
:1002800000047F39140400D0401C50EA124001D40D
:100290004000491EC2B20C0604EBD010401C4008BE
:1002A000802A02D003E0002010BD20F001000029C8
:1002B00000DA0020184310BD2DE9FE4F804681EA88
:1002C0000300C00F0C46009021F0004123F00045D0
:1002D000B8EB0200A94105D24046214690461C4693
:1002E0000B46024623F00040104347D0270DC7F3CA
:1002F0000A00C3F30A510290401A019040286BDAB9
:10030000C3F3130040F4801B0098924620B10023F1
:10031000D2EB030A63EB0B0B01985946C0F1400284
:10032000504600F056F906460D4650465946019A89
:1003300000F05EF910EB08006141002487EA1152D9
:1003400084EAE7731A4340D0009A62B3019A012A03
:100350004FEA075215DC001B61EB02014FF000422F
:1003600002EA0752CDE90042001C41F580113246F5
:100370002B4600F095F903B0BDE8F08F40462146CA
:10038000F9E7001B61EB0201001C41F58013001826
:100390005B412018A2F5001747EB030140EAD57036
:1003A000B6196D4111E06D084FEA360645EAC07591
:1003B0004FEA0752001B61EB0201001C41F580115E
:1003C00049084FEA30000019514132462B4603B02C
:1003D000BDE8F04F00F055B900980122400000231D
:1003E000D0EB020263EBE073009821464FEAE07421
:1003F000B8EB000061EB0401E9E783F000435BE741
:1004000081F0004158E72DE9FE4F81EA030404F032
:10041000004421F0004100944FF0000B23F0004312
:1004200050EA01045ED052EA03045BD0C3F30A54DD
:10043000C1F30A552C44A4F2F3340194A0FB0254F6
:10044000C1F3130141F48011C3F3130343F4801388
:1004500001FB024400FB034E840A970A44EA8154DC
:1004600047EA8357A4FB076802958D0A05FB0785B9
:100470004FEA932C04FB0C542705029D4FEA0658C3
:1004800047EA1637B5EB08056EEB070C870E920EA0
:1004900047EA811742EA8312A7FB0201B6EB0B0180
:1004A00064EB00042B0D43EA0C335E1844EB1C5044
:1004B000DA465146E7FB0201C5F313044FEA0B335A
:1004C00043EA14534FEA0432019C43EA0603A4F1C1
:1004D0000C040294009CCDE900B400F0E1F803B0F4
:1004E000BDE8F08F00200146F9E7C10F80EAE07017
:1004F0000844CA079623002100F095B896230022ED
:10050000114600F090B80EB540F23341029100213F
:10051000CDE900110A460B4600F0C2F803B000BD59
:1005200020F00040C10DC0F3160040F400007F2908
:1005300001DA00207047962903DCC1F19601C8401A
:10054000704796398840704700F0004230F0004014
:100550000AD0C10D01F56071C0F3160042EA0151E5
:10056000C20840071143704700200146704701F060
:10057000004330B421F0004150EA010206D00A0DD8
:10058000A2F56072C1F31301002A02DC30BC002026
:100590007047440F44EAC104C100E01830BC00EBCE
:1005A000C25000F037B830B50B460146002020227B
:1005B000012409E021FA02F59D4205D303FA02F570
:1005C000491B04FA02F52844151EA2F10102F1DCD0
:1005D00030BD202A04DB203A00FA02F100207047E7
:1005E0009140C2F1200320FA03F319439040704771
:1005F000202A06DBCB17203A41FA02F043EAE073E7
:1006000006E041FA02F3D040C2F1200291400843D3
:10061000194670470029A8BF7047401C490008BF11
:1006200020F00100704710B4B0FA80FC00FA0CF022
:1006300050EA010404BF10BC704749B1CCF120045A
:1006400021FA04F411FA0CF118BF012121430843E7
:10065000A3EB0C01CB1D4FEA00614FEA102042BF13
:10066000002010BC704700EBC35010440029A4BF09
:1006700010BC7047401C490008BF20F0010010BCAE
:10068000704710B5141E73F1000408DA401C41F1E4
:10069000000192185B411A4301D120F0010010BD06
:1006A0002DE9F04D92469B4611B1B1FA81F202E07C
:1006B000B0FA80F220329046FFF78BFF04460F46D7
:1006C00040EA0A0041EA0B0153465A46084313D058
:1006D000114653EA010019D0C8F14002504600F01B
:1006E0003FF805460E46504659464246FFF771FF11
:1006F000084305D0012004E020463946BDE8F08DCE
:100700000020054346EAE0762C4337430A98630508
:10071000E40AA0EB08000022FD0A44EA47540A302C
:1007200002D500200146E9E7010510196941DDE91C
:10073000084500196941BDE8F04DA2E7064C074D98
:1007400006E0E06840F0010394E8070098471034A1
:10075000AC42F6D3FFF70CFD5C2900087C290008A9
:10076000202A04DB203A21FA02F00021704721FA06
:1007700002F3D040C2F1200291400843194670476D
:1007800070B58C1810F8015B15F0070301D110F853
:10079000013B2A1106D110F8012B03E010F8016B80
:1007A00001F8016B5B1EF9D12B0705D40023521E03
:1007B0000DD401F8013BFAE710F8013BCB1A921C6B
:1007C00003E013F8015B01F8015B521EF9D5A14269
:1007D000D8D3002070BD00BFFEE77047704700000F
:1007E00010B5102000F0EAFD012804D13849087145
:1007F000102000F0DDFD802000F0E0FD012819D17F
:1008000080214FF0904000F0B3FF98B93048408904
:1008100080B900202E49087202212E4800F0A8FF5E
:1008200010B101202A4908720120294948818020FD
:1008300000F0BEFD802000F0C1FD012847D18021DD
:100840004FF0904000F094FF012840D120484089AB
:1008500001283CD102211F4800F08AFFB0B91C4892
:10086000007A012812D110214FF0904000F080FF53
:1008700048B91748407B012805D1032014498873E3
:100880000120087302E001201149887302211148F8
:1008900000F06EFFA8B10E48007A90B910214FF019
:1008A000904000F065FF48B90948407B012805D118
:1008B0000420074988730120087302E002200449DC
:1008C0008873002002494881802000F071FD10BD2E
:1008D000400100200004004800BFFEE700BFFEE723
:1008E0007047000010B5002807DA0A07140E054A01
:1008F00000F00F031B1FD45403E00A07130E024A33
:10090000135410BD18ED00E000E400E0704770479C
:1009100010B500F0BBF91C480079012804D11A4831
:100920000068401C184908601748807B062804D1DD
:100930001548C088401C1449C88014480068401CF1
:100940001249086008460068B0F57A6F03D80120A4
:100950000F49086017E00D480068B0F57A6F09D9B3
:100960000A48006849F64041884203D202200849FB
:10097000086008E00548006849F64041884202D90D
:1009800000200249086010BD40010020080000203E
:100990000C00002010B51F48006840F001001D4900
:1009A000086000BF1B48006800F002000028F9D072
:1009B0001848406818490840164948600846406889
:1009C00016490840134948600846406820F4400032
:1009D000486008460068124908400E490860084609
:1009E000C06A20F00F00C8620846006B40F2431155
:1009F0008843084908630846406B20F001004863BB
:100A00000020886001F044FB00214FF0006001F0FD
:100A10000FF910BD001002400C00FF08FFFFC0F7E7
:100A2000FFFFF2FE00BFFEE70FB4054B10B503A9B0
:100A3000044A029800F018F810BC5DF814FB00009E
:100A4000E11300083C01002002E008C8121F08C1A1
:100A5000002AFAD170477047002001E001C1121F3F
:100A6000002AFBD1704700002DE9FF4F89B09B465B
:100A70000446002506E025280BD05A460B999047DE
:100A8000641C6D1C20780028F5D10DB02846BDE807
:100A9000F08F0027B8460122474900E0074314F8C9
:100AA000013F203B02FA03F00842F7D120782E28BC
:100AB00019D114F8010F47F004072A280ED06FF05F
:100AC0002F022078A0F1300109290CD808EB880109
:100AD00002EB410100EB0108641CF2E70A98641C78
:100AE00050F8048B0A9020780028CED0642808D0D3
:100AF000692806D075281ED05A460B9990476D1C60
:100B000058E00A994FF00A0901C90A91002802DA4F
:100B100040422D2102E0390504D52B218DF820100B
:100B2000012103E0F90704D02021F7E78A4608AE47
:100B30000DE00021FAE70A994FF00A0901C90A916C
:100B4000F7E74946FFF72FFD303106F8011D002871
:100B5000F7D1ADEB060000F12009780701D44FF082
:100B60000108C84502DDA8EB090000E0002080462E
:100B7000002706E008A85A46C05D0B9990476D1CF7
:100B80007F1C5745F6DB04E030205A460B9990470E
:100B90006D1CB8F10001A8F10108F5DC05E016F8BC
:100BA000010B5A460B9990476D1CB9F10001A9F150
:100BB0000109F4DC641C65E7092801002DE9F04F08
:100BC00085B0044689460020049009F00F0B2001EF
:100BD00000EB291000F0FF0A5046FFF786FC049056
:100BE000082C09DD6FEA0A00401C00F0FF0ACAF178
:100BF0000000FFF77AFC04905846FFF784FC0022BF
:100C00000B4BCDE90001FFF7FEFB07468846049831
:100C1000FFF79AFC3A464346CDE90201FFF74CFB49
:100C20000546FFF7A4FC0490049805B0BDE8F08FDA
:100C30000000B03F10B50446204600F005FD10BD91
:100C40000349086000BF024909680029FBD17047C9
:100C50001000002010B504460B4801F0BEFA0AE06F
:100C600000BF0121084801F0C0FA0028F9D0012195
:100C7000054801F0B7FA201EA4F101018CB2EFD1B2
:100C8000014801F0A5FA10BD0020004004480068AA
:100C900020B103480068401E014908607047000009
:100CA0001000002010B5044603E04FF47A70FFF7FF
:100CB000D1FF201EA4F101018CB2F6D110BD10B5F8
:100CC000044640F2115001F011F93CB90223002210
:100CD00011464FF0904000F053FD08E0012C06D182
:100CE0000223002201214FF0904000F049FD022331
:100CF000032201214FF0904000F069FD02204FF0E7
:100D00009041886210BD10B540F2115001F0EEF82C
:100D100040F2115001F0EAF80123002219464FF089
:100D2000904000F02DFD2023002201214FF0904043
:100D300000F026FD0123032219464FF0904000F0F9
:100D400046FD2023032201214FF0904000F03FFD9B
:100D500001204FF0904188622020886210BD000081
:100D600070B500218E2000F0C1F8002415E0104875
:100D7000005D0A2190FBF1F201FB12010C48005DBD
:100D80000A2290FBF2F001EB0010C5B20949085DA0
:100D9000294600F0ABF8601CC4B2072CE7DB8021C9
:100DA0008E2000F0A3F84FF47A70FFF77BFF70BD40
:100DB0002E000020270000202DE9F04106460025E6
:100DC0000027002220214FF0904000F0CCFC0120B1
:100DD000FFF740FF002201214FF0904000F0C3FCDC
:100DE0000120FFF737FF012220214FF0904000F053
:100DF000BAFC0120FFF72EFF304600F0A5F80120D5
:100E0000FFF728FF0020FFF75AFF00241DE0022112
:100E10004FF0904000F0ACFC0746681040EAC71065
:100E2000C5B2012211464FF0904000F09CFC012019
:100E3000FFF710FF002201214FF0904000F093FCDB
:100E40000120FFF707FF601CC4B2082CDFDB002283
:100E500020214FF0904000F086FC0120FFF7FAFEC1
:100E6000012211464FF0904000F07DFC0120FFF779
:100E7000F1FE002202214FF0904000F074FC0120AE
:100E8000FFF7E8FE012202214FF0904000F06BFCDA
:100E90000120FFF7DFFE2846BDE8F0812DE9F04193
:100EA00000241BE00F49085DFFF786FF0546C017C9
:100EB00005EB10700011A5EB00170A49085DFFF75C
:100EC0007BFF0646C01706EB1070001100EB800098
:100ED00007EB400004490855601CC4B2072CE1DB55
:100EE000BDE8F081200000201900002070B5054603
:100EF0000C46002220214FF0904000F034FC0120ED
:100F0000FFF7A8FE002201214FF0904000F02BFCDB
:100F10000120FFF79FFE012220214FF0904000F0BA
:100F200022FC0120FFF796FE284600F00DF820462F
:100F300000F00AF8002220214FF0904000F013FC4E
:100F40000120FFF787FE70BD70B504460120FFF752
:100F5000B6FE00251BE004F0010202214FF0904094
:100F600000F001FC6410012211464FF0904000F0A7
:100F7000FAFB0120FFF76EFE002201214FF09040A6
:100F800000F0F1FB0120FFF765FE681CC5B2082DDB
:100F9000E1DB70BD10B5022000F04CF800224021CA
:100FA0004FF0904000F0DFFB4FF41670FFF752FE59
:100FB000012240214FF0904000F0D5FB1E20FFF7AA
:100FC00049FE012000F036F840214FF0904000F03B
:100FD000CFFB04464FF4FA70FFF73CFE204610BDED
:100FE00070B50446FFF7D6FFCC2000F074F844201B
:100FF00000F071F84FF44870FFF754FEFFF7CAFF96
:10100000CC2000F068F8BE2000F065F800F037F85A
:10101000054600F034F8064629463046FFF7CEFD77
:101020002060206870BD0A21C1712821817164216E
:101030000181704710B5044640F2115000F056FF90
:10104000012C07D14023002211464FF0904000F0C0
:1010500097FB08E0022C06D14023002201214FF02B
:10106000904000F08DFB4023032201214FF090407F
:1010700000F0ADFB40204FF09041886210BD70B58C
:101080000024082523E00220FFF7D4FF002240219E
:101090004FF0904000F067FB0220FFF7DBFD0122DC
:1010A00040214FF0904000F05EFB0F20FFF7D2FD93
:1010B000641040214FF0904000F05AFB012801D10C
:1010C00044F080043220FFF7C5FD681EC5B2002D34
:1010D000D9DC204670BD70B50446082527E0022003
:1010E000FFF7A8FF002240214FF0904000F03BFBAB
:1010F0000220FFF7AFFD04F0010030B101224021D2
:101100004FF0904000F02FFB05E0002240214FF00F
:10111000904000F028FB4620FFF79CFD0122402173
:101120004FF0904000F01FFB6410681EC5B2002D08
:10113000D5DC70BD10B5044640F2115000F0D6FE6B
:1011400040F2125000F0D2FE40F2115000F0CEFEFC
:101150004FF4C06000F0CAFE8023002211464FF019
:10116000904000F00DFB022300221146174800F0CA
:1011700007FB1023002211464FF0904000F000FBC7
:10118000012C21D101221146072000F0F1FC01229F
:101190001146072000F0ECFC0721002000F0D6FEED
:1011A0000421002000F0D2FE02220021802000F065
:1011B000A1F8802000F0FCF801220021102000F0AE
:1011C00099F8102000F0F4F810BD00000004004869
:1011D00010B54748007901280FD1454800680A2812
:1011E0000BD94348407940B910214FF0904000F0AE
:1011F000BFFA10B901203E4948713D4840790128A5
:1012000012D13B480068B0F5FA7F0DD93848006824
:10121000B0F57A7F08D210214FF0904000F0A8FA84
:1012200010B90120324948733148407901280DD165
:101230002F480068B0F57A7F08D92D48007B012837
:1012400004D006202A498873002048732848407932
:10125000012813D126480068B0F5FA7F0ED9102175
:101260004FF0904000F084FA012807D10020204977
:101270004871086008714873087388731C48407986
:10128000012810D110214FF0904000F071FA012890
:1012900009D117480068B0F5FA7F04D2022014493A
:1012A0004871002008601248007901281CD11048BC
:1012B0004079022818D10E480068642814D91021FA
:1012C0004FF0904000F054FA38B90720084988736D
:1012D000002008600871487106E005200449887301
:1012E00000200860087148710148847B204610BDC9
:1012F0004001002010B52D4B1B6883432B4C23600D
:10130000231D1B688343241D2360231D1B68834307
:10131000241D2360231D1B688343241D236011B1FA
:1013200001290ED105E0214B1B6803431F4C2360AC
:1013300008E01E4B1B1D1B6803431C4C241D23602F
:1013400000E000BF00BF32B1012A11D0022A1CD038
:10135000032A27D127E0154B08331B680343134C9E
:1013600008342360231D1B688343241D23601BE076
:101370000E4B08331B6883430C4C08342360231D39
:101380001B680343241D23600EE0084B08331B68D1
:101390000343064C08342360231D1B680343241DAC
:1013A000236001E000BF00BF00BF10BD000401408A
:1013B00001490860704700001404014001460748D5
:1013C000006800EA010205481438006800EA0103D9
:1013D00012B10BB1012070470020FCE7140401405A
:1013E00070B504460D46E1B2064801F041FA00BF6F
:1013F00040F20771034801F064FA0028F8D0204653
:1014000070BD00000044004010B5002001F00AF952
:1014100010BD000010B527E0FFF7DAFE0446012CEE
:1014200004D0022C0BD0052C16D111E01148006815
:10143000401C1049086000200F4988730DE00D48DA
:101440000068401E0B49086000200B49887304E0C7
:1014500000200949887308E000BF00BF05490988DA
:1014600088B201F04BF800BFD6E7012003490870AD
:1014700010BD00004000002040010020440000207A
:1014800010B5012001F0CEF810BD704710B5022054
:1014900001F0C8F810BD704710B5032001F0C2F884
:1014A00010BD000070B50025002480E0FFF790FE1D
:1014B0000646012E04D0022E34D0052E71D163E0F1
:1014C000072D2AD2DFE805F004050B11171D2300B4
:1014D00000BF601CC4B23C2C00DD00241DE0601C79
:1014E000C4B2172C00DD002417E0601CC4B21F2C0E
:1014F00000DD012411E0601CC4B20C2C00DD0124CD
:101500000BE0601CC4B2072C00DD012405E0601C68
:10151000C4B2642C00DD002400BF00BF00202749B6
:1015200088733FE0072D2AD2DFE805F004050B1190
:10153000171D230000BF601EC4B2002C00DA3C243B
:101540001DE0601EC4B2002C00DA172417E0601EF4
:10155000C4B2002C00DA1F2411E0601EC4B2012CBA
:1015600000DA0C240BE0601EC4B2012C00DA072460
:1015700005E0601EC4B2002C00DA642400BF00BF86
:1015800000200E4988730DE00D484455681CC5B213
:101590000024002009498873062D01DD08E000E0E1
:1015A00000BF00BF00BF204600F0A8FF00BF7DE7DE
:1015B000FFF7D6FB01200349087070BD40010020F1
:1015C0002E0000204400002010B5042001F02AF86D
:1015D00010BD000070B504242BE0FFF7F9FD0546AF
:1015E000012D04D0022D0ED0052D1CD117E0082CA2
:1015F00005DA601CC4B22146104801F0C0F8002092
:101600000F49887310E0012C05DD601EC4B221462D
:101610000A4801F0B4F800200949887304E000206A
:101620000749887306E000BF00BF204600F066FF50
:1016300000BFD2E701200349087070BD14000020EC
:10164000400100204400002070B5054600242A48CF
:10165000854200D100BF40F2115000F047FC2749FD
:1016600031F8140000F042FC254850F824200121F4
:101670004FF0904000F048F8224850F82420012113
:101680004FF0904000F040F81D4850F824300122FF
:1016900002214FF0904000F073F8194850F82430C0
:1016A000012200214FF0904000F091F8154850F8C9
:1016B0002430012202214FF0904000F061F81148DF
:1016C00050F82430012200214FF0904000F07FF8C4
:1016D000284601F0D1F84FF4E131284601F08AF8AC
:1016E0000821284601F004F90421284601F0F8F801
:1016F000284601F0E1F870BD00440040F0000020F1
:10170000F4000020F8000020F0B503461C6A5D6A72
:1017100000200DE00126864016403EB187000F26CE
:10172000BE40B443860001FA06F63443461CB0B20C
:101730000828EFD3082011E00126864016405EB14C
:10174000A0F10806B7000F26BE40B543A0F1080679
:10175000B60001FA06F63543461CB0B21028EBD3AA
:101760001C625D62F0BD0AB1816100E08162704778
:1017700002461069084008B1012070470020FCE7CC
:10178000F0B504460D4616462168E268002019E0CF
:10179000012787401F409FB14FEA400C032707FAFB
:1017A0000CF7B943470005FA07F739434FEA400CF5
:1017B000032707FA0CF7BA43470006FA07F73A433C
:1017C000471CB8B21028E3D32160E260F0BDF0B549
:1017D0000C461546012C03D146681E43466002E0C4
:1017E00046689E434660826800210DE001268E40D7
:1017F0001E403EB14F000326BE40B2434E0005FAE4
:1018000006F632434E1CB1B21029EFD38260F0BD10
:1018100010B500224FF400714FF09040FFF7A3FF86
:101820000520FFF717FA00BF00F049FD0028FBD1A3
:10183000012251024FF09040FFF795FF0220FFF781
:1018400009FA00224FF400714FF09040FFF78BFF30
:1018500010BD10B5012251024FF09040FFF783FFF9
:101860004FF48063002201214FF09040FFF788FF82
:10187000012291024FF09040FFF775FF0220FFF721
:10188000E9F94FF48063002201214FF09040FFF707
:1018900077FF00224FF480614FF09040FFF763FF25
:1018A00010BD10B500224FF400714FF09040FFF7CB
:1018B0005AFF0220FFF7CEF94FF480630022012186
:1018C0004FF09040FFF75CFF00224FF480614FF033
:1018D0009040FFF748FF0220FFF7BCF901225102B8
:1018E0004FF09040FFF73FFF0220FFF7B3F94FF4AE
:1018F0008063002201214FF09040FFF741FF012259
:1019000091024FF09040FFF72EFF10BD70B50446D6
:10191000002536E000224FF400714FF09040FFF7B1
:1019200022FF04F0010070B14FF480630022012116
:101930004FF09040FFF724FF012291024FF09040BA
:10194000FFF711FF0EE04FF48063002201214FF0FA
:101950009040FFF715FF00224FF480614FF0904058
:10196000FFF701FF0220FFF775F964100122510211
:101970004FF09040FFF7F7FE0220FFF76BF9681C6D
:10198000C5B2082DC6DB70BD00F086FB1248FFF71C
:1019900051F900F003FF114800F0EAFE0120FFF7C3
:1019A000C9FB0F48FFF73FFBFFF7ADF94FF4FA70A3
:1019B000FFF746F9FFF7EEFA18B10AA0FFF734F87F
:1019C00002E00EA0FFF730F84FF47A70FFF76AF9E3
:1019D00001E000F065F8FCE700440040140000203E
:1019E000500100204453313842323020496E69742E
:1019F000204572726F72210A000000004453313892
:101A000042323020496E6974204F4B210A00000099
:101A10001FB51648006801280AD11548FFF7E0FAFB
:101A20001349086800F07AFC6420FFF73BF908E0EE
:101A30000E480068022804D1FFF730FA0D4800F084
:101A40000DFE0D4840790C4909780B4A52780A4B33
:101A50009B78CDE90032CDE902100748C3780279BE
:101A6000817906A0FEF7E0FF1FBD00000C000020FA
:101A70005001002014000020190000202564E5B961
:101A8000B42564E69C882564E697A52025643A255C
:101A9000643A256420E591A8EFBC9A25640A000009
:101AA00010B5FFF795FB0446082C4BD2DFE804F095
:101AB0004A04124A4A3C202E2A48007800EB400093
:101AC000294901EB80004078264908700020274909
:101AD000887338E02348007800EB4000224901EB8E
:101AE000800080781F4908700020204988732AE010
:101AF0001C48007800EB40001B4901EB8000007996
:101B0000184908700020194988731CE015480078AE
:101B100000EB4000144901EB8000C07811490870C7
:101B20000020124988730EE00E48007800EB400058
:101B30000D4901EB8000C0780A49087000200B496C
:101B4000887300E000BF00BF002008498873054982
:101B5000097801EB4101044A02EB81018868804762
:101B600010BD00004400002048000020400100207B
:101B70002DE9F04103460D46164600240027A046F5
:101B80002448006800F4E060B0F5A06F15D006DCD2
:101B9000B0F5407F18D0B0F5806F19D110E0B0F5E6
:101BA000C06F06D0B0F5E06F12D100274FF00408E7
:101BB00015E001274FF0030811E00227B8460EE0B8
:101BC00003274FF001080AE004274FF0000806E061
:101BD0004FF4A06000F022F80227B84600BF00BF13
:101BE000C7F1040005FA00F4C8F104010F20C84051
:101BF0003040044324010848C45403F01F0101206D
:101C000088405911890001F1E021C1F80001BDE8C7
:101C1000F08100000CED00E000E400E00249014327
:101C2000024A1160704700000000FA050CED00E068
:101C3000024A0A400243024B1A60704780FFFF1FAE
:101C400008ED00E02DE9F04F8FB004464FF0000C96
:101C5000E0460020002200258146CDF83890002182
:101C6000CDF83490CDF83090CDF82C900023CDF8FD
:101C70002890CDF82490CDF82090002600270FF270
:101C80004C2999E8004CD9F80C90CDE905BECDF867
:101C900010A0CDF81C900FF2382ADAE9009ACDE9AD
:101CA000029A0FF22C2ADAE9009ACDE9009ADFF8BD
:101CB0002C92D9F80490C9F3810CBCF1000F06D026
:101CC000BCF1010F05D0BCF1020F3FD103E0844A03
:101CD0003EE0834A3CE0DFF80492D9F80490C9F36F
:101CE0008343DFF8F891D9F80490C9F3C069CDF8BF
:101CF0002890DDF82890B9F1000F01D0113300E0F1
:101D00009B1CDFF8D891D9F80490C9F30049CDF8AD
:101D10002490DDF82490B9F1000F12D0DFF8BC91C7
:101D2000D9F82C9009F00F0909F10109CDF820909C
:101D3000DFF8ACA1DDF82090BAFBF9F909FB03F25A
:101D400003E0DFF8A09103FB09F201E0644A00BF61
:101D500000BFDFF88891D9F80490C9F303160DF19C
:101D6000100919F8067022FA07F5DFF87091D9F812
:101D70000490C9F302260DF1080919F8067025FA36
:101D800007F9CDF83890DFF85491D9F80490C9F3E9
:101D9000C2261DF8067025FA07F1072C72D2DFE87B
:101DA00004F00406080A0C475B00104689E0284648
:101DB00087E00E9885E0084683E0DFF82091D9F8A7
:101DC000309009F48079B9F5807F04D0DFF818915C
:101DD000CDF834902AE0DFF80491D9F80490C9F3E3
:101DE0008138B8F1000F09D0B8F1010F0BD0B8F16C
:101DF000020F0DD0B8F1030F16D110E04FEA5109D0
:101E0000CDF8349011E04FEA9109CDF834900CE010
:101E10004FF00609B1FBF9F9CDF8349005E04FEA2F
:101E2000D109CDF8349000E000BF00BF0D9848E024
:101E3000DFF8A890D9F8309009F04009B9F1400FC7
:101E400004D048F21209CDF8309003E04FF4004975
:101E5000CDF830900C9834E0DFF88090D9F83090CD
:101E600009F00309B9F1000F01D10B9126E0DFF869
:101E70006C90D9F8309009F00309B9F1010F02D143
:101E80000B921BE01CE0DFF85490D9F8309009F079
:101E90000309B9F1020F04D14FF40049CDF82C9099
:101EA0000CE0DFF83890D9F8309009F00309B9F167
:101EB000030F03D1DFF82890CDF82C900B9800E0A9
:101EC00000BF00BF0FB0BDE8F08F000000000000B1
:101ED0000000000001020304060708090010024088
:101EE00000127A0000093D00809FD500064A02EBEF
:101EF0009011096800F01F0301229A401143024B20
:101F000003EB90121160704700100240064A02EB8A
:101F10009011096800F01F0301229A409143024B7F
:101F200003EB90121160704700100240064A02EB6A
:101F30009011096800F01F0301229A401143024BDF
:101F400003EB9012116070470010024070B5044618
:101F50000B46CD1701EB9575AD10A1EB8505AE00D5
:101F60000F25B540E843CD1701EB9575AD10A1EBFA
:101F70008505AD0004FA05F2CD1701EB9575AD109E
:101F800035B1012D0ED0022D16D0032D28D11DE024
:101F9000154B9B680340144DAB602B469B68134365
:101FA000AB601EE0104BDB6803400F4DEB602B462F
:101FB000DB681343EB6014E00B4B1B6903400A4DD5
:101FC0002B612B461B6913432B610AE0064B5B69AF
:101FD0000340054D6B612B465B6913436B6100E069
:101FE00000BF00BF70BD00000000014000200021C4
:101FF000254A126842F48032234B1A6000BF401C0D
:10200000214A126802F4003111B9B0F5006FF6D11F
:102010001D4A126802F4003202B970471A4A526827
:10202000194B5A601A4652685A601A4652685A60EA
:102030001A465268154B1A40134B5A601A4652689A
:1020400042F4E8125A601A46126842F080721A602E
:1020500000BF0D4A126802F00072002AF9D00A4A45
:10206000526822F00302084B5A601A46526842F046
:1020700002025A6000BF044A526802F00802002AB5
:10208000F9D000BFC9E7000000100240FFFFC2778F
:1020900010B5FFF7ABFF10BD10B5124800684FF444
:1020A0007A71B0FBF1F4601EB0F1807F01D30120A2
:1020B0000FE0601E4FF0E02148610F214FF0FF302C
:1020C000FEF710FC00204FF0E02188610720086136
:1020D000002008B100BFFEE70021481EFEF702FC09
:1020E00010BD0000CC000020016841F080010160BB
:1020F0007047000010B504463349601A8C4217D06F
:102100000CDCB4F1804F1CD03048204410B3B0F543
:10211000406F28D0B0F5E05F52D12DE0B0F5A05F60
:1021200033D0B0F5C05F39D0B0F5E05F48D13EE0C4
:1021300040F20B30FFF7FAFE40F20B30FFF7E6FEFD
:102140003FE04FF48060FFF7F1FE4FF48060FFF74F
:10215000DDFE36E040F20140FFF7E8FE40F20140CC
:10216000FFF7D4FE2DE040F20440FFF7DFFE40F21F
:102170000440FFF7CBFE24E04FF48160FFF7D6FE6A
:102180004FF48160FFF7C2FE1BE04FF44470FFF78D
:10219000CDFE4FF44470FFF7B9FE12E040F211306B
:1021A000FFF7C4FE40F21130FFF7B0FE09E040F245
:1021B0001230FFF7BBFE40F21230FFF7A7FE00E03F
:1021C00000BF00BF10BD0000002C014000FCFFBF9D
:1021D000016821F0010101607047016841F00101CF
:1021E00001607047CA4302617047024610690840A7
:1021F00008B1012070470020FCE700000A888262D5
:10220000234A904205D0B0F1804F02D0214A90423B
:102210000BD1026822F07002026002684B881A43F8
:10222000026002688B881A4302608A68C262184A98
:10223000904211D0B0F1804F0ED0164A90420BD090
:10224000154A904208D0154A904205D0144A90424F
:1022500002D0144A904207D1026822F44072026010
:102260000268CB881A430260094A904208D00B4AA0
:10227000904205D00A4A904202D00A4A904201D1C7
:102280000A7B0263426942F001024261704700002A
:10229000002C0140000400400020004000400140AC
:1022A00000440140004801400021018041808180BC
:1022B0004FF6FF7181600021C1800173704710B536
:1022C0004FF48063002211464FF09040FFF758FA18
:1022D0004FF480614FF09040FFF74AFA10BD0000C4
:1022E00070B504460D46442000F04DFAFFF7D9FAC8
:1022F00004F1BF01C8B200F046FA2846FFF706FB1A
:10230000FFF786FAFFF7CDFA0349487800F03BFA69
:10231000FFF7C7FA70BD0000140000202DE9FE4F42
:1023200007463846FEF7FCF884B20A2094FBF0F129
:1023300000FB1140C5B20A2094FBF0F00A2190FB8B
:10234000F1F201FB1200C6B2642094FBF0F090FBA6
:10235000F1F201FB120000F0FF084FF47A7094FBD9
:10236000F0F0C0B202902046FEF7C8F88146394628
:10237000FDF76DFF01905F4890F820100520FFF7F2
:10238000AFFF092C33DA5B4890F820100120FFF7EB
:10239000A7FF5848405D40F080010220FFF7A0FFF2
:1023A00055490198FDF756FF0090FEF7B9F800F087
:1023B000FF090A2099FBF0F100FB119000F0FF0AE1
:1023C0000A2099FBF0F00A2190FBF1F201FB1200C8
:1023D00000F0FF0B474810F80B100320FFF780FFB9
:1023E000444810F80A100420FFF77AFF80E0092C17
:1023F00034DD642C32DA3F48815D0120FFF770FF45
:102400003C48405D40F080010220FFF769FF3A49F7
:102410000198FDF71FFF0090FEF782F800F0FF091A
:102420000A2099FBF0F100FB119000F0FF0A0A204E
:1024300099FBF0F00A2190FBF1F201FB120000F091
:10244000FF0B2C4810F80B100320FFF749FF294819
:1024500010F80A100420FFF743FF49E0642C2EDD3A
:10246000B4F57A7F2BDA234810F808100120FFF723
:1024700037FF2048815D0220FFF732FF1D48405D95
:1024800040F080010320FFF72BFF1B490198FDF767
:10249000E1FE8346FEF744F800F0FF090A2099FBAD
:1024A000F0F00A2190FBF1F201FB120000F0FF0AAC
:1024B000104810F80A100420FFF712FF18E0B4F5D6
:1024C0007A7F15DB0B48415D0420FFF709FF0948BF
:1024D000815D0320FFF704FF064810F80810022072
:1024E000FFF7FEFE034A0298115C0120FFF7F8FE99
:1024F000BDE8FE8F002900080000C8422DE9F04128
:1025000004460A2094FBF0F100FB1140C5B20A20FA
:1025100094FBF0F00A2190FBF1F201FB1200C6B22D
:10252000642094FBF0F090FBF1F201FB1200C7B2C3
:102530004FF47A7094FBF0F090FBF1F201FB120083
:1025400000F0FF08364890F820100520FFF7C8FE7D
:10255000B4F57A7F14DB3248415D0420FFF7C0FEFA
:102560002F48815D0320FFF7BBFE2D48C15D02208F
:10257000FFF7B6FE2A4810F808100120FFF7B0FE5A
:10258000B4F57A7F16DA632C14DD2548415D04200A
:10259000FFF7A6FE2248815D0320FFF7A1FE204839
:1025A000C15D0220FFF79CFE1D4890F8201001201D
:1025B000FFF796FE642C17DA092C15DD1848415DEB
:1025C0000420FFF78DFE1648815D0320FFF788FE8B
:1025D000134890F820100220FFF782FE104890F870
:1025E00020100120FFF77CFE0A2C16DA0C48415D12
:1025F0000420FFF775FE0A4890F820100320FFF72B
:102600006FFE074890F820100220FFF769FE04488B
:1026100090F820100120FFF763FEBDE8F081000074
:102620000029000870B50546002409E0094A02EBBC
:102630008502115D621CD0B2FFF752FE601CC4B26D
:10264000042CF3DB044890F820100520FFF748FE27
:1026500070BD000021290008002900082DE9F0477D
:102660008146274880780A2190FBF1F090FBF1F237
:1026700001FB1200C5B22248807890FBF1F201FB09
:102680001200C6B21E48407890FBF1F090FBF1F2C8
:1026900001FB1200C7B21A48407890FBF1F201FB2F
:1026A000120000F0FF08164804781648415D01202A
:1026B000FFF716FE1348815D0220FFF711FE114857
:1026C000C15D0320FFF70CFE0E4810F8081004202F
:1026D000FFF706FE204604EBD0714910A4EB410140
:1026E00031B9084890F820100520FFF7F9FD04E003
:1026F0000448417F0520FFF7F3FDBDE8F0870000A7
:10270000190000200029000810B540F21150FFF711
:10271000EDFB4FF40073002201214FF09040FFF7D2
:102720002FF84FF40073032201214FF09040FFF780
:102730004EF84FF400704FF09041886240F2115013
:10274000FFF7D4FB4FF48063002201214FF090404B
:10275000FFF716F84FF48063032201214FF09040F9
:10276000FFF735F84FF480604FF09041886210BD5C
:1027700010B50446FFF7C8FF8B20607010BD01F153
:1027800087024270704710B50446FFF762F8204692
:10279000FFF7BCF8FFF73CF810BD00001FB54FF481
:1027A000E160FFF7A3FB1248FFF7A4FC6846FFF7C0
:1027B0007BFD2320ADF800000020ADF80200ADF84D
:1027C0000400012002900020ADF806008DF80C00F6
:1027D00069460748FFF712FD0548FFF785FC012110
:1027E0000348FFF7FFFC0248FFF7F2FC1FBD0000A3
:1027F000002000402DE9F04704460D460027B8466A
:10280000B94600261948204438B1B0F5744F09D1B3
:102810000620FFF717FA074605E00220FFF712FA35
:10282000074600E000BF00BF206800F4004070B120
:10283000780000EB5500B0FBF5F64FF6F07006EAB5
:102840000008C6F3420948EA0900E0600CE007EB23
:102850005500B0FBF5F64FF6F07006EA000806F0FA
:102860000F0948EA0900E060BDE8F08700BCFFBF3F
:10287000C1F308028262704710B504460D48204437
:1028800058B1B0F5744F11D140F20E30FFF74EFB46
:1028900040F20E30FFF73AFB09E040F21140FFF73B
:1028A00045FB40F21140FFF731FB00E000BF00BFE5
:1028B00010BD000000BCFFBF016841F001010160D4
:1028C000704710B5024602EB9110006801F01F043A
:1028D0000123A340184008B1012010BD0020FCE7EF
:1028E000026822F00402026002680A430260704734
:1028F000026822F00802026002680A430260704720
:102900003F065B4F666D7D077F6F777C395E79711F
:10291000506E1C3E783176741E38545C67804008D7
:1029200000713E3F06713E3F5B713E3F4F713E3F3F
:1029300066713E3F6D713E3F7D713E3F07713E3F88
:102940007F713E3F6F713E063F713E0606713E0647
:102950005B7950503F795050060000007C290008F8
:10296000000000204001000080070008282A00081D
:102970004001002020040000580A00080120200F18
:1029800081838587898B8D80828486888A8C0616D0
:102990001207050616420113111A46080102050620
:1029A0001309143E080203010748190C45030402E9
:1029B000081A8D0C45040503091A990C45050104F4
:1029C0000A13C9151B080601411A15181A070141F7
:1029D0001A8B0C2901411A970C1A0901411AA50CEE
:1029E0001A0A01411AD53C1134A24A041A480A496C
:1029F00004120C3A483529052210291D1A115229B2
:102A00000829131C110513027B14053412143A48CB
:102A1000C522205A80201A161EA914111302054C33
:082A20000D07059931000000CB
:040000050800016985
:00000001FF
