:020000040800F2
:10000000A004002081010008D9080008D1080008D8
:10001000D5080008D1070008C90900080000000041
:1000200000000000000000000000000007090008B8
:10003000D5070008000000000509000809090008AC
:100040009B0100089B0100089B0100089B01000820
:100050009B010008D70700089B010008D90700088A
:100060009B0100089B0100089B0100089B01000800
:100070009B0100089B0100089B0100089B010008F0
:100080009B0100089B010008000000009B01000884
:100090009B0100089B0100089B0100089B010008D0
:1000A0009B0100089B0100089B0100089B010008C0
:1000B0009B010008000000009B01000800000000F8
:1000C0009B010008000000009B0100089B01000844
:1000D0009B0100089B0100089B0100080000000034
:1000E00000000000000000009B0100089B010008C8
:1000F0009B0100089B0100089B0100089B01000870
:100100009B01000800000000000000009B010008A7
:1001100000000000000000000000000000000000DF
:1001200000000000000000000000000000000000CF
:1001300000000000000000000000000000000000BF
:1001400000000000000000000000000000000000AF
:1001500000000000000000009B0100089B01000857
:100160009B0100089B010008DFF810D000F00EFB97
:1001700000480047C5180008AFF30080A004002025
:100180000648804706480047FEE7FEE7FEE7FEE731
:10019000FEE7FEE7FEE7FEE7FEE7FEE739090008B7
:1001A000690100082DE9FE4F804681EA0300C00F77
:1001B0000C46009021F0004123F00045B8EB02000E
:1001C000A94105D24046214690461C460B460246B0
:1001D00023F00040104347D0270DC7F30A00C3F3B4
:1001E0000A510290401A019040286BDAC3F31300C1
:1001F00040F4801B0098924620B10023D2EB030A02
:1002000063EB0B0B01985946C0F14002504600F0D9
:1002100069F906460D4650465946019A00F071F9B3
:1002200010EB08006141002487EA115284EAE77369
:100230001A4340D0009A62B3019A012A4FEA07524A
:1002400015DC001B61EB02014FF0004202EA07528D
:10025000CDE90042001C41F5801132462B4600F0EA
:10026000A8F903B0BDE8F08F40462146F9E7001B2E
:1002700061EB0201001C41F5801300185B4120185E
:10028000A2F5001747EB030140EAD570B6196D419E
:1002900011E06D084FEA360645EAC0754FEA07528D
:1002A000001B61EB0201001C41F5801149084FEA77
:1002B00030000019514132462B4603B0BDE8F04FE3
:1002C00000F068B90098012240000023D0EB020240
:1002D00063EBE073009821464FEAE074B8EB00004E
:1002E00061EB0401E9E783F000435BE781F0004143
:1002F00058E72DE9FE4F81EA030404F0004421F0A1
:10030000004100944FF0000B23F0004350EA010439
:100310005ED052EA03045BD0C3F30A54C1F30A551A
:100320002C44A4F2F3340194A0FB0254C1F3130152
:1003300041F48011C3F3130343F4801301FB02441F
:1003400000FB034E840A970A44EA815447EA835724
:10035000A4FB076802958D0A05FB07854FEA932CDD
:1003600004FB0C542705029D4FEA065847EA16374E
:10037000B5EB08056EEB070C870E920E47EA811766
:1003800042EA8312A7FB0201B6EB0B0164EB000407
:100390002B0D43EA0C335E1844EB1C50DA465146F1
:1003A000E7FB0201C5F313044FEA0B3343EA14538E
:1003B0004FEA0432019C43EA0603A4F10C040294C0
:1003C000009CCDE900B400F0F4F803B0BDE8F08F74
:1003D00000200146F9E70EB5C10F80EAE07008443D
:1003E000CA07002140F233438DE80E000A460B464F
:1003F00000F0DFF803B000BD00F0004230F0004034
:100400000AD0C10D01F56071C0F3160042EA015136
:10041000C20840071143704700200146704701F0B1
:10042000004330B421F0004150EA010206D00A0D29
:10043000A2F56072C1F31301002A02DC30BC002077
:100440007047440F44EAC104C100E01830BC00EB1F
:10045000C25000F068B830B50B460146002020229B
:10046000012409E021FA02F59D4205D303FA02F5C1
:10047000491B04FA02F52844151EA2F10102F1DC21
:1004800030BD2DE9F05F0546002092469B46884628
:100490000646814640241BE0284641464746224600
:1004A00000F086F953465A46C01A914110D31146BE
:1004B0001846224600F016F82D1A67EB01084F4641
:1004C00022460120002100F00DF817EB00094E41F3
:1004D000201EA4F10104DFDC484631462A4643468B
:1004E000BDE8F09F202A04DB203A00FA02F1002048
:1004F00070479140C2F1200320FA03F31943904062
:100500007047202A06DBCB17203A41FA02F043EA73
:10051000E07306E041FA02F3D040C2F120029140BC
:100520000843194670470029A8BF7047401C49007E
:1005300008BF20F00100704710B4B0FA80FC00FA48
:100540000CF050EA010404BF10BC704749B1CCF173
:10055000200421FA04F411FA0CF118BF01212143FF
:100560000843A3EB0C01CB1D4FEA00614FEA1020BA
:1005700042BF002010BC704700EBC350104400295C
:10058000A4BF10BC7047401C490008BF20F0010008
:1005900010BC704710B5141E73F1000408DA401C3B
:1005A00041F1000192185B411A4301D120F0010092
:1005B00010BD2DE9F04D92469B4611B1B1FA81F282
:1005C00002E0B0FA80F220329046FFF78BFF04463B
:1005D0000F4640EA0A0041EA0B0153465A460843D7
:1005E00013D0114653EA010019D0C8F14002504619
:1005F00000F0DEF805460E46504659464246FFF7E3
:1006000071FF084305D0012004E020463946BDE8CB
:10061000F08D0020054346EAE0762C4337430A98E4
:100620006305E40AA0EB08000022FD0A44EA4754EF
:100630000A3002D500200146E9E701051019694199
:10064000DDE9084500196941BDE8F04DA2E72DE953
:10065000F04D81EA030404F0004B21F000451446FC
:100660004FF0000A23F0004150EA050220D054EA7E
:1006700001021DD0C5F30A570246C5F31303C1F3A7
:100680001300C1F30A5640F4801543F48013A7EB1E
:100690000608101BD64608F2FD3873EB050002D39E
:1006A00008F1010801E092185B41B8F1000F03DA8C
:1006B00000200146BDE8F08D00204FF48011064671
:1006C00084460EE0171B73EB050705D3121B63EB83
:1006D000050306434CEA010C49084FEA3000921822
:1006E0005B4150EA0107EDD152EA030012D082EAE1
:1006F000040083EA0501084305D0101BAB4106D274
:100700000122002306E000224FF0004302E06FF0D8
:10071000010253101AEB06004CEB085110EB0A00D3
:1007200041EB0B01BDE8F04DFFF734BFC1F30A52B6
:10073000C1F3130140F2FF3341F480119A4202DA0F
:1007400000200146704740F233439A42A2F23342FE
:1007500002DC524200F02CB8FFF7C4BE30B5041ED4
:1007600071F1000404DB4FF00044404264EB0101EE
:10077000141E73F1000405DB1C464FF00043524287
:1007800063EB0403994208BF904230BD064C074D0D
:1007900006E0E06840F0010394E807009847103451
:1007A000AC42F6D3FFF7E4FC2822000848220008F8
:1007B000202A04DB203A21FA02F00021704721FAB6
:1007C00002F3D040C2F1200291400843194670471D
:1007D00000BFFEE77047704710B5102000F050FFD3
:1007E000012804D138490871102000F043FF80200F
:1007F00000F046FF012819D180214FF0904001F010
:1008000011F898B93048408980B900202E49087203
:1008100002212E4801F006F810B101202A49087281
:10082000012029494881802000F024FF802000F029
:1008300027FF012847D180214FF0904000F0F2FFC0
:10084000012840D12048408901283CD102211F487D
:1008500000F0E8FFB0B91C48007A012812D110213D
:100860004FF0904000F0DEFF48B91748407B012868
:1008700005D10320144988730120087302E0012088
:10088000114988730221114800F0CCFFA8B10E482D
:10089000007A90B910214FF0904000F0C3FF48B9A2
:1008A0000948407B012805D10420074988730120AD
:1008B000087302E00220044988730020024948813D
:1008C000802000F0D7FE10BD9000002000040048FA
:1008D00000BFFEE700BFFEE77047000010B500282C
:1008E00007DA0A07140E054A00F00F031B1FD45441
:1008F00003E00A07130E024A135410BD18ED00E07E
:1009000000E400E07047704710B500F0F1FC0948C2
:100910000079012804D107480068401C0549086097
:100920000448807B062804D10248C088401C014945
:10093000C88010BD9000002010B51F48006840F02E
:1009400001001D49086000BF1B48006800F002005C
:100950000028F9D0184840681849084016494860EE
:1009600008464068164908401349486008464068F0
:1009700020F44000486008460068124908400E49CB
:1009800008600846C06A20F00F00C8620846006B85
:1009900040F243118843084908630846406B20F041
:1009A000010048630020886001F04AFA00214FF0FE
:1009B000006001F015F810BD001002400C00FF08A7
:1009C000FFFFC0F7FFFFF2FE00BFFEE70FB4054BCD
:1009D00010B503A9044A029800F0DAF810BC5DF8DB
:1009E00014FB0000A51600088C00002002E008C8D7
:1009F000121F08C1002AFAD170477047002001E099
:100A000001C1121F002AFBD1704700002DE9FF5FD2
:100A100082B00021DDE90430020DDDF840B003436F
:100A200018D044F61050A2F2FF3242431514119828
:100A300001281FD0A5EB0B00401C5FEA000A4FF015
:100A400000064E4FDFF83891B046504615D5CAF132
:100A5000000413E0119801244AA3012801D16FEA90
:100A60000B010298119AC0E90031C0E9024206B0B8
:100A7000BDE8F09FCBF10000DFE704460021404ACB
:100A8000491842EB0450CDE9001012E0E00707D00E
:100A900032463B4640464946FFF72BFC8046894696
:100AA00032463B4610461946FFF723FC06460F46E2
:100AB0006410002CEAD1DDE90401DDE90023BAF17C
:100AC000000F06DAFFF715FC42464B46FFF711FC14
:100AD00005E0FFF7BCFD42464B46FFF7B8FD044674
:100AE0000E460022284BFFF739FE03D84FF0FF30A7
:100AF000014607E00022254B20463146FFF752FB16
:100B0000FFF714FE102409E0002C0ADB0A22002360
:100B1000FFF7B7FC039B30321A55641E50EA0102FE
:100B2000F2D1641C039AC4F111031444119A012AEE
:100B300003D0012208430DD10AE0084304D000206D
:100B40004FF0110B119072E7A3EB0B056D1E0DE03A
:100B50005B4504DD4FF0000205F1010504E003DA16
:100B60004FF00002A5F10105002AECD0029811997E
:100B7000C0E90231C0E9004579E7000000001440F7
:100B80000000F03F300000000000F0430000E03FB4
:100B90002DE9FF4F95B09A46884606460025EEE1BE
:100BA000252877D100242746F94A0121039400E043
:100BB000044316F8013F203B01FA03F01042F7D13D
:100BC00030782A2811D06FF02F033078A0F130024E
:100BD000092A16D8039A44F0020402EB820203EBBE
:100BE00042021044761C0390EFE758F8042B03925E
:100BF000002A03DA504244F40054039044F0020403
:100C0000761C30782E2816D116F8010F44F0040413
:100C10002A280DD06FF02F023078A0F13003092B75
:100C200009D807EB870302EB4303C718761CF3E7E9
:100C300058F8047B761C30786C280FD006DC4C28E2
:100C400017D068280DD06A2814D104E0742810D079
:100C50007A280FD10DE044F400140AE044F4801423
:100C600001E044F440147278824202D104F5801409
:100C7000761C761C307866280BD013DC582877D089
:100C800009DC002875D04528F6D04628F4D047283E
:100C90001AD193E118E0632835D0642879D065280B
:100CA00012D18BE1702873D008DC6728F1D0692855
:100CB0006FD06E280DD06F2806D1ACE073282CD0F1
:100CC000752874D0782853D05246179990476D1CD8
:100CD00054E1C4F30250022809D003280DD0D8F8FB
:100CE000001004280DD00D6008F1040846E1D8F882
:100CF0000010EA17C1E90052F6E7D8F800100D809D
:100D0000F2E70D70F0E718F8041B8DF800100020D2
:100D10008DF80100EB46012003E058F804BB4FF0CA
:100D2000FF3061074FF0000102D40DE009F101012D
:100D30008946B9420FDA8145F8DB1BF80910002912
:100D4000F4D108E009F1010189468142FADB1BF880
:100D500009100029F6D103985346A0EB0907214654
:100D60003846179A00F080FA284400EB090507E09E
:100D700044E008E10DE01BF8010B5246179990473B
:100D8000B9F10109F7D2534621463846179AF2E0E5
:100D900039E00A21C4F302524FF0000B0091022AFD
:100DA00006D058F8040BC117032A09D00AE023E043
:100DB00008F1070020F00702F2E80201904605E082
:100DC00000B2C117042A01D140B2C117002906DAC6
:100DD0000A460021404261EB02012D2202E0220579
:100DE00004D52B228DF80420012203E0E20701D074
:100DF0002022F7E7914657E00A2100E010214FF04A
:100E0000000B00910BE010214FF0000B44F00404A4
:100E10000827009103E008204FF0000B0090C4F376
:100E20000252022A05D058F8040B0021032A08D0E8
:100E300008E008F1070020F00702F2E802019046FE
:100E400003E080B2042A00D1C0B24FF000092207AB
:100E50002AD53278702A07D0DDF800C08CF0100C4B
:100E60005CEA0B0C05D00EE040228DF80420012234
:100E700008E050EA010306D030238DF804308DF8E5
:100E8000052002229146009B83F0080353EA0B03DE
:100E90000AD150EA010201D1620705D530228DF84E
:100EA00004204FF001097F1E3278582A04D039A25D
:100EB0000C920CAA02920BE03BA2F9E75B46009A67
:100EC000FFF7DFFA0C9B9B5C029A521E0292137092
:100ED00050EA0102F2D1029804A9081A00F1200B8D
:100EE000600702D524F4803400E001275F4502DD6D
:100EF000A7EB0B0000E0002000EB0B010090039833
:100F00004944401A0390E00306D453462146179AF9
:100F1000039800F0A9F90544002706E001A852460D
:100F2000C05D179990476D1C7F1C4F45F6DBE003B1
:100F30000CD553462146179A039800F095F90544BD
:100F400004E030205246179990476D1C0099481EC6
:100F500000900029F5DC08E00298029952460078DA
:100F6000491C0291179990476D1CBBF10001ABF130
:100F7000010BF1DC5BE100F065F90544761C30788B
:100F800000287FF40DAE19B02846BDE8F08F0000B0
:100F9000092801003031323334353637383961624F
:100FA0006364656600000000303132333435363713
:100FB000383941424344454600000000600700D4F0
:100FC000062708F1070020F00700F0E8022380461A
:100FD00003F0004C5FEA0C0001D097A009E0200567
:100FE00001D596A005E0E00701D095A001E0AFF2A1
:100FF0004C001390307823F0004365280CD006DCB9
:10100000452809D046281DD047287FD13BE06628D7
:1010100018D067287AD136E00021112F01DB11208A
:1010200000E0781CCDE9000104A90CA8FFF7EEFC54
:10103000DDE90D010C9A4FF0000B07F10109109248
:1010400000914EE04FF000400097CDE9011004A957
:101050000CA8FFF7DBFCDDE90D020C9B0F994FF0AC
:10106000000B91461093009211B9791C00EB010915
:10107000B7EB090003D4C0F1FF3B07F10109A9EB6D
:101080000700019042E0012F00DA01270021112F13
:1010900001DD112000E03846CDE9000104A90CA8CB
:1010A000FFF7B4FCDDE90D010C9A00914FF0000B45
:1010B000B946109221070FD4009A4A4503DA9146A7
:1010C00001E0A9F10109B9F1010F05DD109AA9F1BB
:1010D0000101515C3029F4D0B84202DA10F1040F5A
:1010E00003DA0121CDE9011010E0002803DC83447C
:1010F000A9EB000102E0411C494500DD8946A0EB57
:101100000B00401C01904FF000400290200705D4D6
:101110000198484502DB4FF0FF30019000208DF828
:101120004B0002980DF14B07B0F1004F25D0022083
:101130000C902B200D90029800280CDA404202906F
:101140002D200D9007E00A210298FFF784F9303135
:10115000029007F8011D0C99481E0C900029F2DC42
:1011600002980028EFD1791E0D980870307800F0B1
:10117000200040F0450007F8020D11A8C01BC01D5B
:1011800002901398007800B1012000EB090101984A
:1011900001EBE071029801440398401A401E03904D
:1011A000E00306D453462146179A039800F05CF8F2
:1011B00005441398007818B15246179990476D1C52
:1011C000E00323D553462146179A039800F04CF8C4
:1011D00005441BE0BBF1000F07DB0098584504DD18
:1011E0001098179910F80B0001E01799302052461B
:1011F000904701980BF1010B401E05F1010501908C
:1012000004D12E205246179990476D1CB9F1000168
:10121000A9F10109DEDC05E017F8010B5246179928
:1012200090476D1C0299481E02900029F4DC534639
:101230002146179A03989EE62D0000002B0000001F
:10124000200000002DE9F041044600251E46174607
:10125000880404D405E039462020B0476D1C641E84
:10126000F9D52846BDE8F0812DE9F0410446002576
:101270001E469046C80301D5302700E02027880489
:1012800004D505E041463846B0476D1C641EF9D5CB
:101290002846BDE8F08110B50446204600F016FA55
:1012A00010BD00000349086000BF02490968002919
:1012B000FBD170471000002010B504460B4800F029
:1012C00064FE0AE000BF0121084800F066FE002825
:1012D000F9D00121054800F05DFE201EA4F10101B6
:1012E0008CB2EFD1014800F04BFE10BD0020004051
:1012F0000448006820B103480068401E01490860A6
:10130000704700001000002010B54023002201218A
:101310004FF0904000F08EFA002240214FF09040B4
:1013200000F063FA7D20FFF7C7FF40230022012170
:101330004FF0904000F07EFA012240214FF09040A3
:1013400000F053FA4420FFF7B7FF00F052F808B15D
:10135000012000E00020044684F0010010BD0000E0
:101360002DE9F04786B08146FFF7CEFF8246BAF1FD
:10137000000F2ED0CC2000F089F8BE2000F086F8B7
:1013800000F045F8054600F042F8064634462002D3
:1013900004B22C43241104EB8400440005F00F0038
:1013A000FFF719F800220D4BCDE90001FEF7A1FF70
:1013B000074688462046FFF70EF83A464346CDE9F1
:1013C0000201FEF7EFFECDE90401FFF728F8C9F8A6
:1013D0000000504606B0BDE8F08700000000E43F82
:1013E00010B504460A2060712820207100F002FA2E
:1013F00010BD10B54023002211464FF0904000F080
:1014000019FA40214FF0904000F00CFA10BD70B571
:1014100001242AE04023002201214FF0904000F0F7
:1014200009FA002240214FF0904000F0DEF902203E
:10143000FFF742FF4023002201214FF0904000F0CF
:10144000F9F9012240214FF0904000F0CEF902203E
:10145000FFF732FFFFF7CDFF08B9A54300E02543B2
:101460003C20FFF729FF6006040E002CD2D128464D
:1014700070BD10B5FFF748FF04462CB1CC2000F03A
:1014800005F8442000F002F8204610BD70B505466E
:1014900001242FE04023002201214FF0904000F072
:1014A000C9F9002240214FF0904000F09EF902203F
:1014B000FFF702FF04EA050068B94023002201217A
:1014C0004FF0904000F0B6F9002240214FF09040DC
:1014D00000F08BF90CE04023002201214FF09040F6
:1014E00000F0A8F9012240214FF0904000F07DF972
:1014F0006006040E002CCDD13C20FFF7DDFE40231A
:10150000002201214FF0904000F094F90122402187
:101510004FF0904000F069F970BD000010B504462E
:1015200040F2115000F0BAFB40F2125000F0B6FB4E
:1015300040F2115000F0B2FB4FF4C06000F0AEFB7F
:101540008023002211464FF0904000F073F90223EF
:1015500000221146174800F06DF9102300221146B1
:101560004FF0904000F066F9012C21D10122114684
:10157000072000F0D5F901221146072000F0D0F92C
:101580000721002000F0BAFB0421002000F0B6FB88
:1015900002220021802000F00FF8802000F06AF87D
:1015A00001220021102000F007F8102000F062F85E
:1015B00010BD00000004004810B52D4B1B6883438C
:1015C0002B4C2360231D1B688343241D2360231D94
:1015D0001B688343241D2360231D1B688343241D34
:1015E000236011B101290ED105E0214B1B68034393
:1015F0001F4C236008E01E4B1B1D1B6803431C4C43
:10160000241D236000E000BF00BF32B1012A11D0C9
:10161000022A1CD0032A27D127E0154B08331B6868
:101620000343134C08342360231D1B688343241D8C
:1016300023601BE00E4B08331B6883430C4C0834BB
:101640002360231D1B680343241D23600EE0084B09
:1016500008331B680343064C08342360231D1B68B2
:101660000343241D236001E000BF00BF00BF10BD85
:101670000004014001490860704700001404014063
:1016800001460748006800EA01020548143800686E
:1016900000EA010312B10BB1012070470020FCE702
:1016A0001404014070B504460D46E1B2064800F04E
:1016B00073FD00BF40F20771034800F096FD00285B
:1016C000F8D0204670BD00000044004070B50546CB
:1016D00000242A48854200D100BF40F2115000F09A
:1016E000DDFA274931F8140000F0D8FA254850F8FF
:1016F000242001214FF0904000F048F8224850F893
:10170000242001214FF0904000F040F81D4850F88F
:101710002430012202214FF0904000F08BF819484C
:1017200050F82430012200214FF0904000F0A9F839
:10173000154850F82430012202214FF0904000F06B
:1017400079F8114850F82430012200214FF09040E0
:1017500000F097F8284600F023FD4FF4E1312846C9
:1017600000F0DCFC0821284600F056FD0421284644
:1017700000F04AFD284600F033FD70BD00440040F3
:10178000400000204400002048000020F0B503463F
:101790001C6A5D6A00200DE00126864016403EB1BD
:1017A00087000F26BE40B443860001FA06F6344394
:1017B000461CB0B20828EFD3082011E0012686406D
:1017C00016405EB1A0F10806B7000F26BE40B54333
:1017D000A0F10806B60001FA06F63543461CB0B281
:1017E0001028EBD31C625D62F0BD0AB1816100E09C
:1017F0008162704710B540F2115000F04FFA40235B
:10180000002201214FF0904000F014F84023032201
:1018100001214FF0904000F034F840204FF090410B
:10182000886210BD02461069084008B10120704767
:101830000020FCE7F0B504460D4616462168E26834
:10184000002019E0012787401F409FB14FEA400C5C
:10185000032707FA0CF7B943470005FA07F739439E
:101860004FEA400C032707FA0CF7BA43470006FA81
:1018700007F73A43471CB8B21028E3D32160E2606F
:10188000F0BDF0B50C461546012C03D146681E4349
:10189000466002E046689E434660826800210DE093
:1018A00001268E401E403EB14F000326BE40B2438B
:1018B0004E0005FA06F632434E1CB1B21029EFD3A2
:1018C0008260F0BD00F0C0FA1148FFF7E4FC00F0C0
:1018D000FFFB104800F0F4FB0120FFF71FFE40F271
:1018E000DC50FFF7DFFC0C48FFF77AFD0EE0FFF756
:1018F000C0FD0948FFF734FD07490868FEF77CFD85
:10190000044622460B4605A0FFF760F8EFE700000B
:1019100000440040140000200800002025660A0052
:101920002DE9F04103460D46164600240027A04647
:101930002448006800F4E060B0F5A06F15D006DC24
:10194000B0F5407F18D0B0F5806F19D110E0B0F538
:10195000C06F06D0B0F5E06F12D100274FF0040839
:1019600015E001274FF0030811E00227B8460EE00A
:1019700003274FF001080AE004274FF0000806E0B3
:101980004FF4A06000F022F80227B84600BF00BF65
:10199000C7F1040005FA00F4C8F104010F20C840A3
:1019A0003040044324010848C45403F01F010120BF
:1019B00088405911890001F1E021C1F80001BDE81A
:1019C000F08100000CED00E000E400E0024901437A
:1019D000024A1160704700000000FA050CED00E0BB
:1019E000024A0A400243024B1A60704780FFFF1F01
:1019F00008ED00E02DE9F04F8FB004464FF0000CE9
:101A0000E0460020002200258146CDF838900021D4
:101A1000CDF83490CDF83090CDF82C900023CDF84F
:101A20002890CDF82490CDF82090002600270FF2C2
:101A30004C2999E8004CD9F80C90CDE905BECDF8B9
:101A400010A0CDF81C900FF2382ADAE9009ACDE9FF
:101A5000029A0FF22C2ADAE9009ACDE9009ADFF80F
:101A60002C92D9F80490C9F3810CBCF1000F06D078
:101A7000BCF1010F05D0BCF1020F3FD103E0844A55
:101A80003EE0834A3CE0DFF80492D9F80490C9F3C1
:101A90008343DFF8F891D9F80490C9F3C069CDF811
:101AA0002890DDF82890B9F1000F01D0113300E043
:101AB0009B1CDFF8D891D9F80490C9F30049CDF800
:101AC0002490DDF82490B9F1000F12D0DFF8BC911A
:101AD000D9F82C9009F00F0909F10109CDF82090EF
:101AE000DFF8ACA1DDF82090BAFBF9F909FB03F2AD
:101AF00003E0DFF8A09103FB09F201E0644A00BFB4
:101B000000BFDFF88891D9F80490C9F303160DF1EE
:101B1000100919F8067022FA07F5DFF87091D9F864
:101B20000490C9F302260DF1080919F8067025FA88
:101B300007F9CDF83890DFF85491D9F80490C9F33B
:101B4000C2261DF8067025FA07F1072C72D2DFE8CD
:101B500004F00406080A0C475B00104689E028469A
:101B600087E00E9885E0084683E0DFF82091D9F8F9
:101B7000309009F48079B9F5807F04D0DFF81891AE
:101B8000CDF834902AE0DFF80491D9F80490C9F335
:101B90008138B8F1000F09D0B8F1010F0BD0B8F1BE
:101BA000020F0DD0B8F1030F16D110E04FEA510922
:101BB000CDF8349011E04FEA9109CDF834900CE063
:101BC0004FF00609B1FBF9F9CDF8349005E04FEA82
:101BD000D109CDF8349000E000BF00BF0D9848E077
:101BE000DFF8A890D9F8309009F04009B9F1400F1A
:101BF00004D048F21209CDF8309003E04FF40049C8
:101C0000CDF830900C9834E0DFF88090D9F830901F
:101C100009F00309B9F1000F01D10B9126E0DFF8BB
:101C20006C90D9F8309009F00309B9F1010F02D195
:101C30000B921BE01CE0DFF85490D9F8309009F0CB
:101C40000309B9F1020F04D14FF40049CDF82C90EB
:101C50000CE0DFF83890D9F8309009F00309B9F1B9
:101C6000030F03D1DFF82890CDF82C900B9800E0FB
:101C700000BF00BF0FB0BDE8F08F00000000000003
:101C800000000000010203040607080900100240DA
:101C900000127A0000093D00809FD500064A02EB41
:101CA0009011096800F01F0301229A401143024B72
:101CB00003EB90121160704700100240064A02EBDD
:101CC0009011096800F01F0301229A409143024BD2
:101CD00003EB90121160704700100240064A02EBBD
:101CE0009011096800F01F0301229A401143024B32
:101CF00003EB9012116070470010024070B504466B
:101D00000B46CD1701EB9575AD10A1EB8505AE0027
:101D10000F25B540E843CD1701EB9575AD10A1EB4C
:101D20008505AD0004FA05F2CD1701EB9575AD10F0
:101D300035B1012D0ED0022D16D0032D28D11DE076
:101D4000154B9B680340144DAB602B469B681343B7
:101D5000AB601EE0104BDB6803400F4DEB602B4681
:101D6000DB681343EB6014E00B4B1B6903400A4D27
:101D70002B612B461B6913432B610AE0064B5B6901
:101D80000340054D6B612B465B6913436B6100E0BB
:101D900000BF00BF70BD0000000001400020002116
:101DA000254A126842F48032234B1A6000BF401C5F
:101DB000214A126802F4003111B9B0F5006FF6D172
:101DC0001D4A126802F4003202B970471A4A52687A
:101DD000194B5A601A4652685A601A4652685A603D
:101DE0001A465268154B1A40134B5A601A465268ED
:101DF00042F4E8125A601A46126842F080721A6081
:101E000000BF0D4A126802F00072002AF9D00A4A97
:101E1000526822F00302084B5A601A46526842F098
:101E200002025A6000BF044A526802F00802002A07
:101E3000F9D000BFC9E7000000100240FFFFC277E1
:101E400010B5FFF7ABFF10BD10B5124800684FF496
:101E50007A71B0FBF1F4601EB0F1807F01D30120F4
:101E60000FE0601E4FF0E02148610F214FF0FF307E
:101E7000FEF734FD00204FF0E02188610720086163
:101E8000002008B100BFFEE70021481EFEF726FD36
:101E900010BD00001C000020016841F080010160BD
:101EA0007047000010B504463349601A8C4217D0C1
:101EB0000CDCB4F1804F1CD03048204410B3B0F596
:101EC000406F28D0B0F5E05F52D12DE0B0F5A05FB3
:101ED00033D0B0F5C05F39D0B0F5E05F48D13EE017
:101EE00040F20B30FFF7FAFE40F20B30FFF7E6FE50
:101EF0003FE04FF48060FFF7F1FE4FF48060FFF7A2
:101F0000DDFE36E040F20140FFF7E8FE40F201401E
:101F1000FFF7D4FE2DE040F20440FFF7DFFE40F271
:101F20000440FFF7CBFE24E04FF48160FFF7D6FEBC
:101F30004FF48160FFF7C2FE1BE04FF44470FFF7DF
:101F4000CDFE4FF44470FFF7B9FE12E040F21130BD
:101F5000FFF7C4FE40F21130FFF7B0FE09E040F297
:101F60001230FFF7BBFE40F21230FFF7A7FE00E091
:101F700000BF00BF10BD0000002C014000FCFFBFEF
:101F8000016821F0010101607047016841F0010121
:101F900001607047CA4302617047024610690840F9
:101FA00008B1012070470020FCE700000A88826227
:101FB000234A904205D0B0F1804F02D0214A90428E
:101FC0000BD1026822F07002026002684B881A434B
:101FD000026002688B881A4302608A68C262184AEB
:101FE000904211D0B0F1804F0ED0164A90420BD0E3
:101FF000154A904208D0154A904205D0144A9042A2
:1020000002D0144A904207D1026822F44072026062
:102010000268CB881A430260094A904208D00B4AF2
:10202000904205D00A4A904202D00A4A904201D119
:102030000A7B0263426942F001024261704700007C
:10204000002C0140000400400020004000400140FE
:10205000004401400048014010B540F21150FFF724
:102060001DFE4FF40073002201214FF09040FFF756
:10207000E1FB4FF40073032201214FF09040FFF782
:1020800000FC4FF400704FF09041886240F2115014
:10209000FFF704FE4FF48063002201214FF09040CF
:1020A000FFF7C8FB4FF48063032201214FF09040FB
:1020B000FFF7E7FB4FF480604FF09041886210BD5E
:1020C00010B50446FFF7C8FF8B20607010BD0000FC
:1020D0001FB54FF4E160FFF7E1FD0F48FFF7E2FEA7
:1020E0004720ADF800000020ADF80200ADF8040074
:1020F000012002900020ADF806008DF80C00694622
:102100000548FFF753FF0448FFF7C6FE01210248C8
:10211000FFF740FF1FBD0000002000402DE9F04701
:1021200004460D460027B846B94600261948204403
:1021300038B1B0F5744F09D10620FFF75BFC0746B4
:1021400005E00220FFF756FC074600E000BF00BF95
:10215000206800F4004070B1780000EB5500B0FB3F
:10216000F5F64FF6F07006EA0008C6F3420948EAB1
:102170000900E0600CE007EB5500B0FBF5F64FF608
:10218000F07006EA000806F00F0948EA0900E0606E
:10219000BDE8F08700BCFFBFC1F308028262704750
:1021A00010B504460D48204458B1B0F5744F11D114
:1021B00040F20E30FFF792FD40F20E30FFF77EFD49
:1021C00009E040F21140FFF789FD40F21140FFF7AE
:1021D00075FD00E000BF00BF10BD000000BCFFBFE8
:1021E000016841F001010160704710B5024602EB41
:1021F0009110006801F01F040123A340184008B1AA
:10220000012010BD0020FCE7026822F004020260F9
:1022100002680A4302607047026822F00802026006
:1022200002680A430260704748220008000000204C
:1022300090000000EC090008D8220008900000205F
:1022400010040000FC09000800000000000000006D
:10225000000000000000000000000000000000007E
:102260000000000000A24A040000004800080048E6
:1022700000080048000C00480800000000080000AA
:10228000001000000400000011070000040000001E
:10229000080000001105130513051405000000488F
:1022A0000008004800140048010000000020000061
:1022B0008000000011051305160500000100000054
:1022C0000020000080000000000205000D07050747
:0822D0000700000000000000FF
:040000050800016985
:00000001FF
